{
  "contractName": "Destructible",
  "abi": [
    {
      "constant": true,
      "inputs": [],
      "name": "MANAGEMENT_KEY",
      "outputs": [
        {
          "name": "",
          "type": "uint256"
        }
      ],
      "payable": false,
      "stateMutability": "view",
      "type": "function"
    },
    {
      "constant": true,
      "inputs": [],
      "name": "actionThreshold",
      "outputs": [
        {
          "name": "",
          "type": "uint256"
        }
      ],
      "payable": false,
      "stateMutability": "view",
      "type": "function"
    },
    {
      "constant": true,
      "inputs": [
        {
          "name": "addr",
          "type": "address"
        }
      ],
      "name": "addrToKey",
      "outputs": [
        {
          "name": "",
          "type": "bytes32"
        }
      ],
      "payable": false,
      "stateMutability": "pure",
      "type": "function"
    },
    {
      "constant": true,
      "inputs": [],
      "name": "managementThreshold",
      "outputs": [
        {
          "name": "",
          "type": "uint256"
        }
      ],
      "payable": false,
      "stateMutability": "view",
      "type": "function"
    },
    {
      "constant": true,
      "inputs": [],
      "name": "numKeys",
      "outputs": [
        {
          "name": "",
          "type": "uint256"
        }
      ],
      "payable": false,
      "stateMutability": "view",
      "type": "function"
    },
    {
      "constant": false,
      "inputs": [
        {
          "name": "_recipient",
          "type": "address"
        }
      ],
      "name": "destroyAndSend",
      "outputs": [],
      "payable": false,
      "stateMutability": "nonpayable",
      "type": "function"
    }
  ],
  "bytecode": "0x608060405260016000556001805534801561001957600080fd5b50610456806100296000396000f300608060405260043610610078576000357c0100000000000000000000000000000000000000000000000000000000900463ffffffff168063058b316c1461007d57806338f4edd4146100a857806363f14c3c146100d3578063aa0a514214610132578063c9d24ecc1461015d578063f5074f4114610188575b600080fd5b34801561008957600080fd5b506100926101cb565b6040518082815260200191505060405180910390f35b3480156100b457600080fd5b506100bd6101d0565b6040518082815260200191505060405180910390f35b3480156100df57600080fd5b50610114600480360381019080803573ffffffffffffffffffffffffffffffffffffffff1690602001909291905050506101d6565b60405180826000191660001916815260200191505060405180910390f35b34801561013e57600080fd5b506101476101f9565b6040518082815260200191505060405180910390f35b34801561016957600080fd5b506101726101ff565b6040518082815260200191505060405180910390f35b34801561019457600080fd5b506101c9600480360381019080803573ffffffffffffffffffffffffffffffffffffffff16906020019092919050505061020b565b005b600181565b60015481565b60008173ffffffffffffffffffffffffffffffffffffffff166001029050919050565b60005481565b60006002800154905090565b610213610273565b151561021e57600080fd5b600073ffffffffffffffffffffffffffffffffffffffff168173ffffffffffffffffffffffffffffffffffffffff161415151561025a57600080fd5b8073ffffffffffffffffffffffffffffffffffffffff16ff5b60003073ffffffffffffffffffffffffffffffffffffffff163373ffffffffffffffffffffffffffffffffffffffff1614156102b257600190506102e5565b60016000541415156102c357600080fd5b6102e26102cf336101d6565b600160026102e89092919063ffffffff16565b90505b90565b60006102f2610405565b60008560000160008660001916600019168152602001908152602001600020606060405190810160405290816000820180548060200260200160405190810160405280929190818152602001828054801561036c57602002820191906000526020600020905b815481526020019060010190808311610358575b505050505081526020016001820154815260200160028201546000191660001916815250509150600060010282604001516000191614156103b057600092506103fc565b600090505b8160000151518110156103fb57838260000151828151811015156103d557fe5b9060200190602002015114156103ee57600192506103fc565b80806001019150506103b5565b5b50509392505050565b60606040519081016040528060608152602001600081526020016000801916815250905600a165627a7a72305820d11cd833bffd16a3d9c5f1214bf97737b6e3ff95f38ff18aa1235fd758ac8cc10029",
  "source": "pragma solidity ^0.4.24;\n\nimport \"./KeyBase.sol\";\n\n/// @title Destructible\n/// @author Mircea Pasoi\n/// @notice Base contract that can be destroyed by MANAGEMENT_KEY or the identity itself\n/// @dev Inspired by https://github.com/OpenZeppelin/zeppelin-solidity/blob/master/contracts/lifecycle/Destructible.sol\n\ncontract Destructible is KeyBase {\n    /// @dev Transfers the current balance and terminates the contract\n    /// @param _recipient All funds in contract will be sent to this recipient\n    function destroyAndSend(address _recipient)\n        public\n        onlyManagementOrSelf\n    {\n        require(_recipient != address(0));\n        selfdestruct(_recipient);\n    }\n}",
  "sourcePath": "/home/sithagaisingam/Works/erc725-735-master/contracts/Destructible.sol",
  "compiler": {
    "name": "solc",
    "version": "0.4.24+commit.e67f0147.Emscripten.clang"
  },
  "schemaVersion": "2.0.1",
  "updatedAt": "2018-09-27T06:58:04.770Z"
}