{
  "contractName": "Identity",
  "abi": [
    {
      "constant": true,
      "inputs": [
        {
          "name": "interfaceID",
          "type": "bytes4"
        }
      ],
      "name": "supportsInterface",
      "outputs": [
        {
          "name": "",
          "type": "bool"
        }
      ],
      "payable": false,
      "stateMutability": "view",
      "type": "function"
    },
    {
      "constant": true,
      "inputs": [],
      "name": "ERC165ID",
      "outputs": [
        {
          "name": "",
          "type": "bytes4"
        }
      ],
      "payable": false,
      "stateMutability": "pure",
      "type": "function"
    },
    {
      "constant": true,
      "inputs": [],
      "name": "REGISTRY_TOPIC",
      "outputs": [
        {
          "name": "",
          "type": "uint256"
        }
      ],
      "payable": false,
      "stateMutability": "view",
      "type": "function"
    },
    {
      "constant": true,
      "inputs": [],
      "name": "MANAGEMENT_KEY",
      "outputs": [
        {
          "name": "",
          "type": "uint256"
        }
      ],
      "payable": false,
      "stateMutability": "view",
      "type": "function"
    },
    {
      "constant": true,
      "inputs": [],
      "name": "BIOMETRIC_TOPIC",
      "outputs": [
        {
          "name": "",
          "type": "uint256"
        }
      ],
      "payable": false,
      "stateMutability": "view",
      "type": "function"
    },
    {
      "constant": true,
      "inputs": [
        {
          "name": "_key",
          "type": "bytes32"
        }
      ],
      "name": "getKey",
      "outputs": [
        {
          "name": "purposes",
          "type": "uint256[]"
        },
        {
          "name": "keyType",
          "type": "uint256"
        },
        {
          "name": "key",
          "type": "bytes32"
        }
      ],
      "payable": false,
      "stateMutability": "view",
      "type": "function"
    },
    {
      "constant": true,
      "inputs": [
        {
          "name": "issuer",
          "type": "address"
        },
        {
          "name": "topic",
          "type": "uint256"
        }
      ],
      "name": "getClaimId",
      "outputs": [
        {
          "name": "",
          "type": "bytes32"
        }
      ],
      "payable": false,
      "stateMutability": "pure",
      "type": "function"
    },
    {
      "constant": true,
      "inputs": [
        {
          "name": "subject",
          "type": "address"
        },
        {
          "name": "topic",
          "type": "uint256"
        },
        {
          "name": "data",
          "type": "bytes"
        }
      ],
      "name": "claimToSign",
      "outputs": [
        {
          "name": "",
          "type": "bytes32"
        }
      ],
      "payable": false,
      "stateMutability": "pure",
      "type": "function"
    },
    {
      "constant": false,
      "inputs": [
        {
          "name": "_key",
          "type": "bytes32"
        },
        {
          "name": "_purpose",
          "type": "uint256"
        },
        {
          "name": "_keyType",
          "type": "uint256"
        }
      ],
      "name": "addKey",
      "outputs": [
        {
          "name": "success",
          "type": "bool"
        }
      ],
      "payable": false,
      "stateMutability": "nonpayable",
      "type": "function"
    },
    {
      "constant": true,
      "inputs": [],
      "name": "CONTRACT_SCHEME",
      "outputs": [
        {
          "name": "",
          "type": "uint256"
        }
      ],
      "payable": false,
      "stateMutability": "view",
      "type": "function"
    },
    {
      "constant": true,
      "inputs": [
        {
          "name": "_topic",
          "type": "uint256"
        }
      ],
      "name": "getClaimIdsByType",
      "outputs": [
        {
          "name": "claimIds",
          "type": "bytes32[]"
        }
      ],
      "payable": false,
      "stateMutability": "view",
      "type": "function"
    },
    {
      "constant": true,
      "inputs": [],
      "name": "RSA_TYPE",
      "outputs": [
        {
          "name": "",
          "type": "uint256"
        }
      ],
      "payable": false,
      "stateMutability": "view",
      "type": "function"
    },
    {
      "constant": true,
      "inputs": [],
      "name": "actionThreshold",
      "outputs": [
        {
          "name": "",
          "type": "uint256"
        }
      ],
      "payable": false,
      "stateMutability": "view",
      "type": "function"
    },
    {
      "constant": true,
      "inputs": [
        {
          "name": "toSign",
          "type": "bytes32"
        },
        {
          "name": "signature",
          "type": "bytes"
        }
      ],
      "name": "getSignatureAddress",
      "outputs": [
        {
          "name": "",
          "type": "address"
        }
      ],
      "payable": false,
      "stateMutability": "pure",
      "type": "function"
    },
    {
      "constant": false,
      "inputs": [],
      "name": "unpause",
      "outputs": [],
      "payable": false,
      "stateMutability": "nonpayable",
      "type": "function"
    },
    {
      "constant": true,
      "inputs": [],
      "name": "ECDSA_TYPE",
      "outputs": [
        {
          "name": "",
          "type": "uint256"
        }
      ],
      "payable": false,
      "stateMutability": "view",
      "type": "function"
    },
    {
      "constant": false,
      "inputs": [
        {
          "name": "_claimId",
          "type": "bytes32"
        }
      ],
      "name": "removeClaim",
      "outputs": [
        {
          "name": "success",
          "type": "bool"
        }
      ],
      "payable": false,
      "stateMutability": "nonpayable",
      "type": "function"
    },
    {
      "constant": false,
      "inputs": [
        {
          "name": "_key",
          "type": "bytes32"
        },
        {
          "name": "_purpose",
          "type": "uint256"
        }
      ],
      "name": "removeKey",
      "outputs": [
        {
          "name": "success",
          "type": "bool"
        }
      ],
      "payable": false,
      "stateMutability": "nonpayable",
      "type": "function"
    },
    {
      "constant": true,
      "inputs": [],
      "name": "paused",
      "outputs": [
        {
          "name": "",
          "type": "bool"
        }
      ],
      "payable": false,
      "stateMutability": "view",
      "type": "function"
    },
    {
      "constant": false,
      "inputs": [
        {
          "name": "_claimId",
          "type": "bytes32"
        }
      ],
      "name": "refreshClaim",
      "outputs": [
        {
          "name": "",
          "type": "bool"
        }
      ],
      "payable": false,
      "stateMutability": "nonpayable",
      "type": "function"
    },
    {
      "constant": true,
      "inputs": [
        {
          "name": "",
          "type": "uint256"
        }
      ],
      "name": "execution",
      "outputs": [
        {
          "name": "to",
          "type": "address"
        },
        {
          "name": "value",
          "type": "uint256"
        },
        {
          "name": "data",
          "type": "bytes"
        },
        {
          "name": "needsApprove",
          "type": "uint256"
        }
      ],
      "payable": false,
      "stateMutability": "view",
      "type": "function"
    },
    {
      "constant": true,
      "inputs": [
        {
          "name": "addr",
          "type": "address"
        }
      ],
      "name": "addrToKey",
      "outputs": [
        {
          "name": "",
          "type": "bytes32"
        }
      ],
      "payable": false,
      "stateMutability": "pure",
      "type": "function"
    },
    {
      "constant": true,
      "inputs": [
        {
          "name": "",
          "type": "uint256"
        },
        {
          "name": "",
          "type": "uint256"
        }
      ],
      "name": "approved",
      "outputs": [
        {
          "name": "",
          "type": "address"
        }
      ],
      "payable": false,
      "stateMutability": "view",
      "type": "function"
    },
    {
      "constant": false,
      "inputs": [
        {
          "name": "_id",
          "type": "uint256"
        },
        {
          "name": "_approve",
          "type": "bool"
        }
      ],
      "name": "approve",
      "outputs": [
        {
          "name": "success",
          "type": "bool"
        }
      ],
      "payable": false,
      "stateMutability": "nonpayable",
      "type": "function"
    },
    {
      "constant": true,
      "inputs": [],
      "name": "ACTION_KEY",
      "outputs": [
        {
          "name": "",
          "type": "uint256"
        }
      ],
      "payable": false,
      "stateMutability": "view",
      "type": "function"
    },
    {
      "constant": true,
      "inputs": [],
      "name": "ERC725ID",
      "outputs": [
        {
          "name": "",
          "type": "bytes4"
        }
      ],
      "payable": false,
      "stateMutability": "pure",
      "type": "function"
    },
    {
      "constant": true,
      "inputs": [],
      "name": "ECDSA_SCHEME",
      "outputs": [
        {
          "name": "",
          "type": "uint256"
        }
      ],
      "payable": false,
      "stateMutability": "view",
      "type": "function"
    },
    {
      "constant": false,
      "inputs": [],
      "name": "pause",
      "outputs": [],
      "payable": false,
      "stateMutability": "nonpayable",
      "type": "function"
    },
    {
      "constant": true,
      "inputs": [
        {
          "name": "_purpose",
          "type": "uint256"
        }
      ],
      "name": "getKeysByPurpose",
      "outputs": [
        {
          "name": "keys",
          "type": "bytes32[]"
        }
      ],
      "payable": false,
      "stateMutability": "view",
      "type": "function"
    },
    {
      "constant": true,
      "inputs": [],
      "name": "ENCRYPTION_KEY",
      "outputs": [
        {
          "name": "",
          "type": "uint256"
        }
      ],
      "payable": false,
      "stateMutability": "view",
      "type": "function"
    },
    {
      "constant": true,
      "inputs": [],
      "name": "RESIDENCE_TOPIC",
      "outputs": [
        {
          "name": "",
          "type": "uint256"
        }
      ],
      "payable": false,
      "stateMutability": "view",
      "type": "function"
    },
    {
      "constant": true,
      "inputs": [],
      "name": "managementThreshold",
      "outputs": [
        {
          "name": "",
          "type": "uint256"
        }
      ],
      "payable": false,
      "stateMutability": "view",
      "type": "function"
    },
    {
      "constant": true,
      "inputs": [],
      "name": "PROFILE_TOPIC",
      "outputs": [
        {
          "name": "",
          "type": "uint256"
        }
      ],
      "payable": false,
      "stateMutability": "view",
      "type": "function"
    },
    {
      "constant": false,
      "inputs": [
        {
          "name": "_topic",
          "type": "uint256"
        },
        {
          "name": "_scheme",
          "type": "uint256"
        },
        {
          "name": "issuer",
          "type": "address"
        },
        {
          "name": "_signature",
          "type": "bytes"
        },
        {
          "name": "_data",
          "type": "bytes"
        },
        {
          "name": "_uri",
          "type": "string"
        }
      ],
      "name": "addClaim",
      "outputs": [
        {
          "name": "claimRequestId",
          "type": "uint256"
        }
      ],
      "payable": false,
      "stateMutability": "nonpayable",
      "type": "function"
    },
    {
      "constant": true,
      "inputs": [],
      "name": "LABEL_TOPIC",
      "outputs": [
        {
          "name": "",
          "type": "uint256"
        }
      ],
      "payable": false,
      "stateMutability": "view",
      "type": "function"
    },
    {
      "constant": false,
      "inputs": [
        {
          "name": "_to",
          "type": "address"
        },
        {
          "name": "_value",
          "type": "uint256"
        },
        {
          "name": "_data",
          "type": "bytes"
        }
      ],
      "name": "execute",
      "outputs": [
        {
          "name": "executionId",
          "type": "uint256"
        }
      ],
      "payable": false,
      "stateMutability": "nonpayable",
      "type": "function"
    },
    {
      "constant": true,
      "inputs": [],
      "name": "ERC735ID",
      "outputs": [
        {
          "name": "",
          "type": "bytes4"
        }
      ],
      "payable": false,
      "stateMutability": "pure",
      "type": "function"
    },
    {
      "constant": true,
      "inputs": [],
      "name": "CLAIM_SIGNER_KEY",
      "outputs": [
        {
          "name": "",
          "type": "uint256"
        }
      ],
      "payable": false,
      "stateMutability": "view",
      "type": "function"
    },
    {
      "constant": true,
      "inputs": [
        {
          "name": "_claimId",
          "type": "bytes32"
        }
      ],
      "name": "getClaim",
      "outputs": [
        {
          "name": "topic",
          "type": "uint256"
        },
        {
          "name": "scheme",
          "type": "uint256"
        },
        {
          "name": "issuer",
          "type": "address"
        },
        {
          "name": "signature",
          "type": "bytes"
        },
        {
          "name": "data",
          "type": "bytes"
        },
        {
          "name": "uri",
          "type": "string"
        }
      ],
      "payable": false,
      "stateMutability": "view",
      "type": "function"
    },
    {
      "constant": true,
      "inputs": [],
      "name": "numKeys",
      "outputs": [
        {
          "name": "",
          "type": "uint256"
        }
      ],
      "payable": false,
      "stateMutability": "view",
      "type": "function"
    },
    {
      "constant": false,
      "inputs": [
        {
          "name": "threshold",
          "type": "uint256"
        }
      ],
      "name": "changeManagementThreshold",
      "outputs": [],
      "payable": false,
      "stateMutability": "nonpayable",
      "type": "function"
    },
    {
      "constant": true,
      "inputs": [
        {
          "name": "_key",
          "type": "bytes32"
        },
        {
          "name": "purpose",
          "type": "uint256"
        }
      ],
      "name": "keyHasPurpose",
      "outputs": [
        {
          "name": "exists",
          "type": "bool"
        }
      ],
      "payable": false,
      "stateMutability": "view",
      "type": "function"
    },
    {
      "constant": false,
      "inputs": [
        {
          "name": "threshold",
          "type": "uint256"
        }
      ],
      "name": "changeActionThreshold",
      "outputs": [],
      "payable": false,
      "stateMutability": "nonpayable",
      "type": "function"
    },
    {
      "constant": true,
      "inputs": [],
      "name": "RSA_SCHEME",
      "outputs": [
        {
          "name": "",
          "type": "uint256"
        }
      ],
      "payable": false,
      "stateMutability": "view",
      "type": "function"
    },
    {
      "constant": false,
      "inputs": [
        {
          "name": "_recipient",
          "type": "address"
        }
      ],
      "name": "destroyAndSend",
      "outputs": [],
      "payable": false,
      "stateMutability": "nonpayable",
      "type": "function"
    },
    {
      "constant": true,
      "inputs": [],
      "name": "numClaims",
      "outputs": [
        {
          "name": "",
          "type": "uint256"
        }
      ],
      "payable": false,
      "stateMutability": "view",
      "type": "function"
    },
    {
      "inputs": [
        {
          "name": "_keys",
          "type": "bytes32[]"
        },
        {
          "name": "_purposes",
          "type": "uint256[]"
        },
        {
          "name": "_managementThreshold",
          "type": "uint256"
        },
        {
          "name": "_actionThreshold",
          "type": "uint256"
        },
        {
          "name": "_issuers",
          "type": "address[]"
        },
        {
          "name": "_topics",
          "type": "uint256[]"
        },
        {
          "name": "_signatures",
          "type": "bytes"
        },
        {
          "name": "_datas",
          "type": "bytes"
        },
        {
          "name": "_uris",
          "type": "string"
        },
        {
          "name": "_sizes",
          "type": "uint8[]"
        }
      ],
      "payable": false,
      "stateMutability": "nonpayable",
      "type": "constructor"
    },
    {
      "payable": true,
      "stateMutability": "payable",
      "type": "fallback"
    },
    {
      "anonymous": false,
      "inputs": [
        {
          "indexed": true,
          "name": "claimRequestId",
          "type": "uint256"
        },
        {
          "indexed": true,
          "name": "topic",
          "type": "uint256"
        },
        {
          "indexed": false,
          "name": "scheme",
          "type": "uint256"
        },
        {
          "indexed": true,
          "name": "issuer",
          "type": "address"
        },
        {
          "indexed": false,
          "name": "signature",
          "type": "bytes"
        },
        {
          "indexed": false,
          "name": "data",
          "type": "bytes"
        },
        {
          "indexed": false,
          "name": "uri",
          "type": "string"
        }
      ],
      "name": "ClaimRequested",
      "type": "event"
    },
    {
      "anonymous": false,
      "inputs": [
        {
          "indexed": true,
          "name": "claimId",
          "type": "bytes32"
        },
        {
          "indexed": true,
          "name": "topic",
          "type": "uint256"
        },
        {
          "indexed": false,
          "name": "scheme",
          "type": "uint256"
        },
        {
          "indexed": true,
          "name": "issuer",
          "type": "address"
        },
        {
          "indexed": false,
          "name": "signature",
          "type": "bytes"
        },
        {
          "indexed": false,
          "name": "data",
          "type": "bytes"
        },
        {
          "indexed": false,
          "name": "uri",
          "type": "string"
        }
      ],
      "name": "ClaimAdded",
      "type": "event"
    },
    {
      "anonymous": false,
      "inputs": [
        {
          "indexed": true,
          "name": "claimId",
          "type": "bytes32"
        },
        {
          "indexed": true,
          "name": "topic",
          "type": "uint256"
        },
        {
          "indexed": false,
          "name": "scheme",
          "type": "uint256"
        },
        {
          "indexed": true,
          "name": "issuer",
          "type": "address"
        },
        {
          "indexed": false,
          "name": "signature",
          "type": "bytes"
        },
        {
          "indexed": false,
          "name": "data",
          "type": "bytes"
        },
        {
          "indexed": false,
          "name": "uri",
          "type": "string"
        }
      ],
      "name": "ClaimRemoved",
      "type": "event"
    },
    {
      "anonymous": false,
      "inputs": [
        {
          "indexed": true,
          "name": "claimId",
          "type": "bytes32"
        },
        {
          "indexed": true,
          "name": "topic",
          "type": "uint256"
        },
        {
          "indexed": false,
          "name": "scheme",
          "type": "uint256"
        },
        {
          "indexed": true,
          "name": "issuer",
          "type": "address"
        },
        {
          "indexed": false,
          "name": "signature",
          "type": "bytes"
        },
        {
          "indexed": false,
          "name": "data",
          "type": "bytes"
        },
        {
          "indexed": false,
          "name": "uri",
          "type": "string"
        }
      ],
      "name": "ClaimChanged",
      "type": "event"
    },
    {
      "anonymous": false,
      "inputs": [
        {
          "indexed": true,
          "name": "key",
          "type": "bytes32"
        },
        {
          "indexed": true,
          "name": "purpose",
          "type": "uint256"
        },
        {
          "indexed": true,
          "name": "keyType",
          "type": "uint256"
        }
      ],
      "name": "KeyAdded",
      "type": "event"
    },
    {
      "anonymous": false,
      "inputs": [
        {
          "indexed": true,
          "name": "key",
          "type": "bytes32"
        },
        {
          "indexed": true,
          "name": "purpose",
          "type": "uint256"
        },
        {
          "indexed": true,
          "name": "keyType",
          "type": "uint256"
        }
      ],
      "name": "KeyRemoved",
      "type": "event"
    },
    {
      "anonymous": false,
      "inputs": [
        {
          "indexed": true,
          "name": "executionId",
          "type": "uint256"
        },
        {
          "indexed": true,
          "name": "to",
          "type": "address"
        },
        {
          "indexed": true,
          "name": "value",
          "type": "uint256"
        },
        {
          "indexed": false,
          "name": "data",
          "type": "bytes"
        }
      ],
      "name": "ExecutionRequested",
      "type": "event"
    },
    {
      "anonymous": false,
      "inputs": [
        {
          "indexed": true,
          "name": "executionId",
          "type": "uint256"
        },
        {
          "indexed": true,
          "name": "to",
          "type": "address"
        },
        {
          "indexed": true,
          "name": "value",
          "type": "uint256"
        },
        {
          "indexed": false,
          "name": "data",
          "type": "bytes"
        }
      ],
      "name": "Executed",
      "type": "event"
    },
    {
      "anonymous": false,
      "inputs": [
        {
          "indexed": true,
          "name": "executionId",
          "type": "uint256"
        },
        {
          "indexed": false,
          "name": "approved",
          "type": "bool"
        }
      ],
      "name": "Approved",
      "type": "event"
    },
    {
      "anonymous": false,
      "inputs": [
        {
          "indexed": true,
          "name": "executionId",
          "type": "uint256"
        },
        {
          "indexed": true,
          "name": "to",
          "type": "address"
        },
        {
          "indexed": true,
          "name": "value",
          "type": "uint256"
        },
        {
          "indexed": false,
          "name": "data",
          "type": "bytes"
        }
      ],
      "name": "ExecutionFailed",
      "type": "event"
    },
    {
      "anonymous": false,
      "inputs": [],
      "name": "LogPause",
      "type": "event"
    },
    {
      "anonymous": false,
      "inputs": [],
      "name": "LogUnpause",
      "type": "event"
    }
  ],
  "bytecode": "0x60806040526001600055600180556000600560006101000a81548160ff02191690831515021790555060016007553480156200003a57600080fd5b5060405162006fe638038062006fe683398101806040528101908080518201929190602001805182019291906020018051906020019092919080519060200190929190805182019291906020018051820192919060200180518201929190602001805182019291906020018051820192919060200180518201929190505050600160066000620000d86200035e640100000000026401000000009004565b7bffffffffffffffffffffffffffffffffffffffffffffffffffffffff19167bffffffffffffffffffffffffffffffffffffffffffffffffffffffff1916815260200190815260200160002060006101000a81548160ff0219169083151502179055506001600660006200015a62000389640100000000026401000000009004565b7bffffffffffffffffffffffffffffffffffffffffffffffffffffffff19167bffffffffffffffffffffffffffffffffffffffffffffffffffffffff1916815260200190815260200160002060006101000a81548160ff021916908315150217905550600160066000620001dc62000492640100000000026401000000009004565b7bffffffffffffffffffffffffffffffffffffffffffffffffffffffff19167bffffffffffffffffffffffffffffffffffffffffffffffffffffffff1916815260200190815260200160002060006101000a81548160ff0219169083151502179055506200025a8a8a6200052c640100000000026401000000009004565b620002768686836200061a640100000000026401000000009004565b620002938a8a8a8a62000766640100000000026401000000009004565b620002b286868686868662000919640100000000026401000000009004565b600160066000620002d162000492640100000000026401000000009004565b620002ea62000389640100000000026401000000009004565b187bffffffffffffffffffffffffffffffffffffffffffffffffffffffff19167bffffffffffffffffffffffffffffffffffffffffffffffffffffffff1916815260200190815260200160002060006101000a81548160ff0219169083151502179055505050505050505050505062001c67565b60006301ffc9a77c010000000000000000000000000000000000000000000000000000000002905090565b60006353d413c57c01000000000000000000000000000000000000000000000000000000000263747442d37c01000000000000000000000000000000000000000000000000000000000263b61d27f67c010000000000000000000000000000000000000000000000000000000002631d3812407c010000000000000000000000000000000000000000000000000000000002639010f7267c01000000000000000000000000000000000000000000000000000000000263d202158d7c0100000000000000000000000000000000000000000000000000000000026312aaac707c010000000000000000000000000000000000000000000000000000000002181818181818905090565b6000634eee424a7c01000000000000000000000000000000000000000000000000000000000263b1a34e0d7c01000000000000000000000000000000000000000000000000000000000263262b54f57c01000000000000000000000000000000000000000000000000000000000263c9100bcb7c010000000000000000000000000000000000000000000000000000000002181818905090565b600080825184511415156200054057600080fd5b600191505b8351821015620006145783600183038151811015156200056157fe5b906020019060200201519050806000191684838151811015156200058157fe5b90602001906020020151600019161180620005fa575080600019168483815181101515620005ab57fe5b9060200190602002015160001916148015620005f957508260018303815181101515620005d457fe5b906020019060200201518383815181101515620005ed57fe5b90602001906020020151115b5b15156200060657600080fd5b818060010192505062000545565b50505050565b600080835185511415156200062e57600080fd5b825184516003021415156200064257600080fd5b600191505b84518210156200075f5784600183038151811015156200066357fe5b9060200190602002015190508073ffffffffffffffffffffffffffffffffffffffff1685838151811015156200069557fe5b9060200190602002015173ffffffffffffffffffffffffffffffffffffffff161415806200074557508073ffffffffffffffffffffffffffffffffffffffff168583815181101515620006e457fe5b9060200190602002015173ffffffffffffffffffffffffffffffffffffffff1614801562000744575083600183038151811015156200071f57fe5b9060200190602002015184838151811015156200073857fe5b90602001906020020151115b5b15156200075157600080fd5b818060010192505062000647565b5050505050565b600080600080600088511415620007fa57620007913362000c0b640100000000026401000000009004565b9150620007b08260018062000c2e640100000000026401000000009004565b620007ce826002600162000c2e640100000000026401000000009004565b620007ec826003600162000c2e640100000000026401000000009004565b6001935060019250620008c1565b600090505b8751811015620008c0576200085688828151811015156200081c57fe5b9060200190602002015188838151811015156200083557fe5b90602001906020020151600162000c2e640100000000026401000000009004565b600187828151811015156200086757fe5b90602001906020020151141562000886578280600101935050620008b2565b600287828151811015156200089757fe5b906020019060200201511415620008b15783806001019450505b5b8080600101915050620007ff565b5b600086111515620008d157600080fd5b828611151515620008e157600080fd5b600085111515620008f157600080fd5b8385111515156200090157600080fd5b85600081905550846001819055505050505050505050565b6200092362001ae9565b60608060008090505b895181101562000bff576200098a8460006003811015156200094a57fe5b602002015186836003028151811015156200096157fe5b906020019060200201518a62000c8e640100000000026200522217909291906401000000009004565b9250620009e3846001600381101515620009a057fe5b60200201518660018460030201815181101515620009ba57fe5b906020019060200201518962000c8e640100000000026200522217909291906401000000009004565b915062000a348982815181101515620009f857fe5b9060200190602002015160018c8481518110151562000a1357fe5b90602001906020020151868662000d9e640100000000026401000000009004565b151562000a4057600080fd5b62000b3162000a8f8b8381518110151562000a5757fe5b906020019060200201518b8481518110151562000a7057fe5b9060200190602002015162000fee640100000000026401000000009004565b8a8381518110151562000a9e57fe5b9060200190602002015160018d8581518110151562000ab957fe5b90602001906020020151878762000b1c8b600260038110151562000ad957fe5b60200201518d60028b6003020181518110151562000af357fe5b906020019060200201518f620010bf640100000000026200532d17909291906401000000009004565b620010e6640100000000026401000000009004565b848160030281518110151562000b4357fe5b9060200190602002015160ff1684600060038110151562000b6057fe5b602002018181510191508181525050846001826003020181518110151562000b8457fe5b9060200190602002015160ff1684600160038110151562000ba157fe5b602002018181510191508181525050846002826003020181518110151562000bc557fe5b9060200190602002015160ff1684600260038110151562000be257fe5b60200201818151019150818152505080806001019150506200092c565b50505050505050505050565b60008173ffffffffffffffffffffffffffffffffffffffff166001029050919050565b62000c568383836002620014026401000000000262004ca61790939291906401000000009004565b808284600019167f480000bb1edad8ca1470381cc334b1917fbd51c6531f3a623ea8e0ec7e38a6e960405160405180910390a4505050565b6060806000808460ff166040519080825280601f01601f19166020018201604052801562000ccb5781602001602082028038833980820191505090505b509250600091508590505b8460ff16860181101562000d9157868181518110151562000cf357fe5b9060200101517f010000000000000000000000000000000000000000000000000000000000000090047f010000000000000000000000000000000000000000000000000000000000000002838380600101945081518110151562000d5357fe5b9060200101907effffffffffffffffffffffffffffffffffffffffffffffffffffffffffffff1916908160001a905350808060010191505062000cd6565b8293505050509392505050565b600080600186141562000fdf5762000de162000dcb308986620014dd640100000000026401000000009004565b8562001606640100000000026401000000009004565b90508073ffffffffffffffffffffffffffffffffffffffff168573ffffffffffffffffffffffffffffffffffffffff16141562000e22576001915062000fe4565b3073ffffffffffffffffffffffffffffffffffffffff168573ffffffffffffffffffffffffffffffffffffffff16141562000e9f5762000e9762000e758262000c0b640100000000026401000000009004565b600360026200174e6401000000000262003dd417909291906401000000009004565b915062000fe4565b62000ef062000ebc62000389640100000000026401000000009004565b8673ffffffffffffffffffffffffffffffffffffffff16620018766401000000000262004039179091906401000000009004565b1562000fd5578473ffffffffffffffffffffffffffffffffffffffff1663d202158d62000f2c8362000c0b640100000000026401000000009004565b60036040518363ffffffff167c010000000000000000000000000000000000000000000000000000000002815260040180836000191660001916815260200182815260200192505050602060405180830381600087803b15801562000f9057600080fd5b505af115801562000fa5573d6000803e3d6000fd5b505050506040513d602081101562000fbc57600080fd5b8101908080519060200190929190505050915062000fe4565b6000915062000fe4565b600091505b5095945050505050565b60008282604051602001808373ffffffffffffffffffffffffffffffffffffffff1673ffffffffffffffffffffffffffffffffffffffff166c01000000000000000000000000028152601401828152602001925050506040516020818303038152906040526040518082805190602001908083835b6020831015156200108a578051825260208201915060208101905060208303925062001063565b6001836020036101000a0380198251168184511680821785525050505050509050019150506040518091039020905092915050565b6060620010dd84848462000c8e640100000000026401000000009004565b90509392505050565b60c0604051908101604052808781526020018681526020018573ffffffffffffffffffffffffffffffffffffffff16815260200184815260200183815260200182815250600a60008960001916600019168152602001908152602001600020600082015181600001556020820151816001015560408201518160020160006101000a81548173ffffffffffffffffffffffffffffffffffffffff021916908373ffffffffffffffffffffffffffffffffffffffff1602179055506060820151816003019080519060200190620011be92919062001b0c565b506080820151816004019080519060200190620011dd92919062001b0c565b5060a0820151816005019080519060200190620011fc92919062001b93565b50905050600b6000878152602001908152602001600020879080600181540180825580915050906001820390600052602060002001600090919290919091509060001916905550600c600081548092919060010191905055508373ffffffffffffffffffffffffffffffffffffffff168688600019167f46149b18aa084502c3f12bc75e19eda8bda8d102b82cce8474677a6d0d5f43c58887878760405180858152602001806020018060200180602001848103845287818151815260200191508051906020019080838360005b83811015620012e7578082015181840152602081019050620012ca565b50505050905090810190601f168015620013155780820380516001836020036101000a031916815260200191505b50848103835286818151815260200191508051906020019080838360005b838110156200135057808201518184015260208101905062001333565b50505050905090810190601f1680156200137e5780820380516001836020036101000a031916815260200191505b50848103825285818151815260200191508051906020019080838360005b83811015620013b95780820151818401526020810190506200139c565b50505050905090810190601f168015620013e75780820380516001836020036101000a031916815260200191505b5097505050505050505060405180910390a450505050505050565b60008460000160008560001916600019168152602001908152602001600020905080600001839080600181540180825580915050906001820390600052602060002001600090919290919091505550600060010281600201546000191614156200147d57838160020181600019169055508181600101819055505b84600101600084815260200190815260200160002084908060018154018082558091505090600182039060005260206000200160009091929091909150906000191690555084600201600081548092919060010191905055505050505050565b6000838383604051602001808473ffffffffffffffffffffffffffffffffffffffff1673ffffffffffffffffffffffffffffffffffffffff166c0100000000000000000000000002815260140183815260200182805190602001908083835b6020831015156200156357805182526020820191506020810190506020830392506200153c565b6001836020036101000a03801982511681845116808217855250505050505090500193505050506040516020818303038152906040526040518082805190602001908083835b602083101515620015d05780518252602082019150602081019050602083039250620015a9565b6001836020036101000a038019825116818451168082178552505050505050905001915050604051809103902090509392505050565b600062001746826040805190810160405280601c81526020017f19457468657265756d205369676e6564204d6573736167653a0a333200000000815250856040516020018083805190602001908083835b6020831015156200167e578051825260208201915060208101905060208303925062001657565b6001836020036101000a0380198251168184511680821785525050505050509050018260001916600019168152602001925050506040516020818303038152906040526040518082805190602001908083835b602083101515620016f85780518252602082019150602081019050602083039250620016d1565b6001836020036101000a038019825116818451168082178552505050505050905001915050604051809103902060001916620019996401000000000262003f41179091906401000000009004565b905092915050565b60006200175a62001c1a565b600085600001600086600019166000191681526020019081526020016000206060604051908101604052908160008201805480602002602001604051908101604052809291908181526020018280548015620017d657602002820191906000526020600020905b815481526020019060010190808311620017c1575b505050505081526020016001820154815260200160028201546000191660001916815250509150600060010282604001516000191614156200181c57600092506200186d565b600090505b8160000151518110156200186c57838260000151828151811015156200184357fe5b9060200190602002015114156200185e57600192506200186d565b808060010191505062001821565b5b50509392505050565b6000806000620018b9856301ffc9a77c01000000000000000000000000000000000000000000000000000000000262001a98640100000000026401000000009004565b80925081935050506000821480620018d15750600081145b15620018e1576000925062001991565b6200191f8563ffffffff7c01000000000000000000000000000000000000000000000000000000000262001a98640100000000026401000000009004565b8092508193505050600082148062001938575060008114155b1562001948576000925062001991565b62001963858562001a98640100000000026401000000009004565b80925081935050506001821480156200197c5750600181145b156200198c576001925062001991565b600092505b505092915050565b60008060008060418551141515620019b5576000935062001a8f565b6020850151925060408501519150606085015160001a9050601b8160ff161015620019e157601b810190505b601b8160ff1614158015620019fa5750601c8160ff1614155b1562001a0a576000935062001a8f565b600186828585604051600081526020016040526040518085600019166000191681526020018460ff1660ff1681526020018360001916600019168152602001826000191660001916815260200194505050505060206040516020810390808403906000865af115801562001a82573d6000803e3d6000fd5b5050506020604051035193505b50505092915050565b60008060006301ffc9a77c010000000000000000000000000000000000000000000000000000000002905060405181815284600482015260208160208389617530fa93508051925050509250929050565b606060405190810160405280600390602082028038833980820191505090505090565b828054600181600116156101000203166002900490600052602060002090601f016020900481019282601f1062001b4f57805160ff191683800117855562001b80565b8280016001018555821562001b80579182015b8281111562001b7f57825182559160200191906001019062001b62565b5b50905062001b8f919062001c3f565b5090565b828054600181600116156101000203166002900490600052602060002090601f016020900481019282601f1062001bd657805160ff191683800117855562001c07565b8280016001018555821562001c07579182015b8281111562001c0657825182559160200191906001019062001be9565b5b50905062001c16919062001c3f565b5090565b6060604051908101604052806060815260200160008152602001600080191681525090565b62001c6491905b8082111562001c6057600081600090555060010162001c46565b5090565b90565b61536f8062001c776000396000f300608060405260043610610230576000357c0100000000000000000000000000000000000000000000000000000000900463ffffffff16806301ffc9a71461023257806302e7491e146102965780630440b43a146102ff578063058b316c1461032a578063109410fa1461035557806312aaac7014610380578063190db8621461041c5780631d203be8146104855780631d38124014610534578063251de3e914610591578063262b54f5146105bc5780632d32d4421461063e57806338f4edd4146106695780633b8a12c8146106945780633f4ba83a1461074b57806349991ec8146107625780634eee424a1461078d57806353d413c5146107d65780635c975abb146108295780635d7bc3fc146108585780635dccebba146108a157806363f14c3c146109885780636e4c4311146109e7578063747442d314610a5e57806375e5598c14610aaf5780637d96fa5814610ada57806382d0944614610b435780638456cb5914610b6e5780639010f72614610b855780639e140cc814610c07578063a550f0c714610c32578063aa0a514214610c5d578063ae62838614610c88578063b1a34e0d14610cb3578063b1e9f64c14610df0578063b61d27f614610e1b578063bf2f20ad14610ec2578063c670218714610f2b578063c9100bcb14610f56578063c9d24ecc14611119578063ccfe586814611144578063d202158d14611171578063e99896b8146111c4578063f22d08a6146111f1578063f5074f411461121c578063fc0fc8491461125f575b005b34801561023e57600080fd5b5061027c60048036038101908080357bffffffffffffffffffffffffffffffffffffffffffffffffffffffff1916906020019092919050505061128a565b604051808215151515815260200191505060405180910390f35b3480156102a257600080fd5b506102ab6112f2565b60405180827bffffffffffffffffffffffffffffffffffffffffffffffffffffffff19167bffffffffffffffffffffffffffffffffffffffffffffffffffffffff1916815260200191505060405180910390f35b34801561030b57600080fd5b5061031461131d565b6040518082815260200191505060405180910390f35b34801561033657600080fd5b5061033f611322565b6040518082815260200191505060405180910390f35b34801561036157600080fd5b5061036a611327565b6040518082815260200191505060405180910390f35b34801561038c57600080fd5b506103af600480360381019080803560001916906020019092919050505061132c565b60405180806020018481526020018360001916600019168152602001828103825285818151815260200191508051906020019060200280838360005b838110156104065780820151818401526020810190506103eb565b5050505090500194505050505060405180910390f35b34801561042857600080fd5b50610467600480360381019080803573ffffffffffffffffffffffffffffffffffffffff169060200190929190803590602001909291905050506113f6565b60405180826000191660001916815260200191505060405180910390f35b34801561049157600080fd5b50610516600480360381019080803573ffffffffffffffffffffffffffffffffffffffff16906020019092919080359060200190929190803590602001908201803590602001908080601f01602080910402602001604051908101604052809392919081815260200183838082843782019150505050505091929192905050506114c5565b60405180826000191660001916815260200191505060405180910390f35b34801561054057600080fd5b50610577600480360381019080803560001916906020019092919080359060200190929190803590602001909291905050506115ea565b604051808215151515815260200191505060405180910390f35b34801561059d57600080fd5b506105a6611656565b6040518082815260200191505060405180910390f35b3480156105c857600080fd5b506105e76004803603810190808035906020019092919050505061165b565b6040518080602001828103825283818151815260200191508051906020019060200280838360005b8381101561062a57808201518184015260208101905061060f565b505050509050019250505060405180910390f35b34801561064a57600080fd5b506106536116ca565b6040518082815260200191505060405180910390f35b34801561067557600080fd5b5061067e6116cf565b6040518082815260200191505060405180910390f35b3480156106a057600080fd5b506107096004803603810190808035600019169060200190929190803590602001908201803590602001908080601f01602080910402602001604051908101604052809392919081815260200183838082843782019150505050505091929192905050506116d5565b604051808273ffffffffffffffffffffffffffffffffffffffff1673ffffffffffffffffffffffffffffffffffffffff16815260200191505060405180910390f35b34801561075757600080fd5b50610760611809565b005b34801561076e57600080fd5b50610777611880565b6040518082815260200191505060405180910390f35b34801561079957600080fd5b506107bc6004803603810190808035600019169060200190929190505050611885565b604051808215151515815260200191505060405180910390f35b3480156107e257600080fd5b5061080f600480360381019080803560001916906020019092919080359060200190929190505050612060565b604051808215151515815260200191505060405180910390f35b34801561083557600080fd5b5061083e61210e565b604051808215151515815260200191505060405180910390f35b34801561086457600080fd5b506108876004803603810190808035600019169060200190929190505050612121565b604051808215151515815260200191505060405180910390f35b3480156108ad57600080fd5b506108cc6004803603810190808035906020019092919050505061260b565b604051808573ffffffffffffffffffffffffffffffffffffffff1673ffffffffffffffffffffffffffffffffffffffff16815260200184815260200180602001838152602001828103825284818151815260200191508051906020019080838360005b8381101561094a57808201518184015260208101905061092f565b50505050905090810190601f1680156109775780820380516001836020036101000a031916815260200191505b509550505050505060405180910390f35b34801561099457600080fd5b506109c9600480360381019080803573ffffffffffffffffffffffffffffffffffffffff1690602001909291905050506126f3565b60405180826000191660001916815260200191505060405180910390f35b3480156109f357600080fd5b50610a1c6004803603810190808035906020019092919080359060200190929190505050612716565b604051808273ffffffffffffffffffffffffffffffffffffffff1673ffffffffffffffffffffffffffffffffffffffff16815260200191505060405180910390f35b348015610a6a57600080fd5b50610a9560048036038101908080359060200190929190803515159060200190929190505050612763565b604051808215151515815260200191505060405180910390f35b348015610abb57600080fd5b50610ac4612ce8565b6040518082815260200191505060405180910390f35b348015610ae657600080fd5b50610aef612ced565b60405180827bffffffffffffffffffffffffffffffffffffffffffffffffffffffff19167bffffffffffffffffffffffffffffffffffffffffffffffffffffffff1916815260200191505060405180910390f35b348015610b4f57600080fd5b50610b58612df6565b6040518082815260200191505060405180910390f35b348015610b7a57600080fd5b50610b83612dfb565b005b348015610b9157600080fd5b50610bb060048036038101908080359060200190929190505050612e73565b6040518080602001828103825283818151815260200191508051906020019060200280838360005b83811015610bf3578082015181840152602081019050610bd8565b505050509050019250505060405180910390f35b348015610c1357600080fd5b50610c1c612ee5565b6040518082815260200191505060405180910390f35b348015610c3e57600080fd5b50610c47612eea565b6040518082815260200191505060405180910390f35b348015610c6957600080fd5b50610c72612eef565b6040518082815260200191505060405180910390f35b348015610c9457600080fd5b50610c9d612ef5565b6040518082815260200191505060405180910390f35b348015610cbf57600080fd5b50610dda6004803603810190808035906020019092919080359060200190929190803573ffffffffffffffffffffffffffffffffffffffff169060200190929190803590602001908201803590602001908080601f0160208091040260200160405190810160405280939291908181526020018383808284378201915050505050509192919290803590602001908201803590602001908080601f0160208091040260200160405190810160405280939291908181526020018383808284378201915050505050509192919290803590602001908201803590602001908080601f0160208091040260200160405190810160405280939291908181526020018383808284378201915050505050509192919290505050612efa565b6040518082815260200191505060405180910390f35b348015610dfc57600080fd5b50610e05613492565b6040518082815260200191505060405180910390f35b348015610e2757600080fd5b50610eac600480360381019080803573ffffffffffffffffffffffffffffffffffffffff16906020019092919080359060200190929190803590602001908201803590602001908080601f0160208091040260200160405190810160405280939291908181526020018383808284378201915050505050509192919290505050613497565b6040518082815260200191505060405180910390f35b348015610ece57600080fd5b50610ed7613854565b60405180827bffffffffffffffffffffffffffffffffffffffffffffffffffffffff19167bffffffffffffffffffffffffffffffffffffffffffffffffffffffff1916815260200191505060405180910390f35b348015610f3757600080fd5b50610f406138ee565b6040518082815260200191505060405180910390f35b348015610f6257600080fd5b50610f8560048036038101908080356000191690602001909291905050506138f3565b604051808781526020018681526020018573ffffffffffffffffffffffffffffffffffffffff1673ffffffffffffffffffffffffffffffffffffffff168152602001806020018060200180602001848103845287818151815260200191508051906020019080838360005b8381101561100b578082015181840152602081019050610ff0565b50505050905090810190601f1680156110385780820380516001836020036101000a031916815260200191505b50848103835286818151815260200191508051906020019080838360005b83811015611071578082015181840152602081019050611056565b50505050905090810190601f16801561109e5780820380516001836020036101000a031916815260200191505b50848103825285818151815260200191508051906020019080838360005b838110156110d75780820151818401526020810190506110bc565b50505050905090810190601f1680156111045780820380516001836020036101000a031916815260200191505b50995050505050505050505060405180910390f35b34801561112557600080fd5b5061112e613bf2565b6040518082815260200191505060405180910390f35b34801561115057600080fd5b5061116f60048036038101908080359060200190929190505050613bfe565b005b34801561117d57600080fd5b506111aa600480360381019080803560001916906020019092919080359060200190929190505050613c65565b604051808215151515815260200191505060405180910390f35b3480156111d057600080fd5b506111ef60048036038101908080359060200190929190505050613c85565b005b3480156111fd57600080fd5b50611206613cec565b6040518082815260200191505060405180910390f35b34801561122857600080fd5b5061125d600480360381019080803573ffffffffffffffffffffffffffffffffffffffff169060200190929190505050613cf1565b005b34801561126b57600080fd5b50611274613d59565b6040518082815260200191505060405180910390f35b600060066000837bffffffffffffffffffffffffffffffffffffffffffffffffffffffff19167bffffffffffffffffffffffffffffffffffffffffffffffffffffffff1916815260200190815260200160002060009054906101000a900460ff169050919050565b60006301ffc9a77c010000000000000000000000000000000000000000000000000000000002905090565b600381565b600181565b600181565b6060600080611339614dd1565b60026000016000866000191660001916815260200190815260200160002060606040519081016040529081600082018054806020026020016040519081016040528092919081815260200182805480156113b257602002820191906000526020600020905b81548152602001906001019080831161139e575b505050505081526020016001820154815260200160028201546000191660001916815250509050806000015193508060200151925080604001519150509193909250565b60008282604051602001808373ffffffffffffffffffffffffffffffffffffffff1673ffffffffffffffffffffffffffffffffffffffff166c01000000000000000000000000028152601401828152602001925050506040516020818303038152906040526040518082805190602001908083835b602083101515611490578051825260208201915060208101905060208303925061146b565b6001836020036101000a0380198251168184511680821785525050505050509050019150506040518091039020905092915050565b6000838383604051602001808473ffffffffffffffffffffffffffffffffffffffff1673ffffffffffffffffffffffffffffffffffffffff166c0100000000000000000000000002815260140183815260200182805190602001908083835b6020831015156115495780518252602082019150602081019050602083039250611524565b6001836020036101000a03801982511681845116808217855250505050505090500193505050506040516020818303038152906040526040518082805190602001908083835b6020831015156115b4578051825260208201915060208101905060208303925061158f565b6001836020036101000a038019825116818451168082178552505050505050905001915050604051809103902090509392505050565b60006115f4613d5f565b15156115ff57600080fd5b600560009054906101000a900460ff1615151561161b57600080fd5b61163184846002613dd49092919063ffffffff16565b1561163f576000905061164f565b61164a848484613ef1565b600190505b9392505050565b600381565b6060600b60008381526020019081526020016000208054806020026020016040519081016040528092919081815260200182805480156116be57602002820191906000526020600020905b815460001916815260200190600101908083116116a6575b50505050509050919050565b600281565b60015481565b6000611801826040805190810160405280601c81526020017f19457468657265756d205369676e6564204d6573736167653a0a333200000000815250856040516020018083805190602001908083835b60208310151561174a5780518252602082019150602081019050602083039250611725565b6001836020036101000a0380198251168184511680821785525050505050509050018260001916600019168152602001925050506040516020818303038152906040526040518082805190602001908083835b6020831015156117c2578051825260208201915060208101905060208303925061179d565b6001836020036101000a038019825116818451168082178552505050505050905001915050604051809103902060001916613f4190919063ffffffff16565b905092915050565b611811613d5f565b151561181c57600080fd5b600560009054906101000a900460ff16151561183757600080fd5b6000600560006101000a81548160ff0219169083151502179055507f730c1faaa977b67dacf1e2451ef54556e04a07d577785ff79f6d31f73502efc960405160405180910390a1565b600181565b600061188f614df6565b600080600560009054906101000a900460ff161515156118ae57600080fd5b846000600a6000836000191660001916815260200190815260200160002060020160009054906101000a900473ffffffffffffffffffffffffffffffffffffffff16905060008173ffffffffffffffffffffffffffffffffffffffff161415151561191857600080fd5b611920613d5f565b1561192a57611a72565b8073ffffffffffffffffffffffffffffffffffffffff163373ffffffffffffffffffffffffffffffffffffffff16141561196357611a71565b61199361196e612ced565b8273ffffffffffffffffffffffffffffffffffffffff1661403990919063ffffffff16565b15611a6b578073ffffffffffffffffffffffffffffffffffffffff1663d202158d6119bd336126f3565b60026040518363ffffffff167c010000000000000000000000000000000000000000000000000000000002815260040180836000191660001916815260200182815260200192505050602060405180830381600087803b158015611a2057600080fd5b505af1158015611a34573d6000803e3d6000fd5b505050506040513d6020811015611a4a57600080fd5b81019080805190602001909291905050501515611a6657600080fd5b611a70565b600080fd5b5b5b600a6000886000191660001916815260200190815260200160002060c0604051908101604052908160008201548152602001600182015481526020016002820160009054906101000a900473ffffffffffffffffffffffffffffffffffffffff1673ffffffffffffffffffffffffffffffffffffffff1673ffffffffffffffffffffffffffffffffffffffff168152602001600382018054600181600116156101000203166002900480601f016020809104026020016040519081016040528092919081815260200182805460018160011615610100020316600290048015611b9c5780601f10611b7157610100808354040283529160200191611b9c565b820191906000526020600020905b815481529060010190602001808311611b7f57829003601f168201915b50505050508152602001600482018054600181600116156101000203166002900480601f016020809104026020016040519081016040528092919081815260200182805460018160011615610100020316600290048015611c3e5780601f10611c1357610100808354040283529160200191611c3e565b820191906000526020600020905b815481529060010190602001808311611c2157829003601f168201915b50505050508152602001600582018054600181600116156101000203166002900480601f016020809104026020016040519081016040528092919081815260200182805460018160011615610100020316600290048015611ce05780601f10611cb557610100808354040283529160200191611ce0565b820191906000526020600020905b815481529060010190602001808311611cc357829003601f168201915b5050505050815250509450600073ffffffffffffffffffffffffffffffffffffffff16856040015173ffffffffffffffffffffffffffffffffffffffff1614151515611d2b57600080fd5b600a6000886000191660001916815260200190815260200160002060008082016000905560018201600090556002820160006101000a81549073ffffffffffffffffffffffffffffffffffffffff0219169055600382016000611d8e9190614e43565b600482016000611d9e9190614e43565b600582016000611dae9190614e8b565b5050600b6000866000015181526020019081526020016000209350600092505b8380549050831015611e8c5786600019168484815481101515611ded57fe5b9060005260206000200154600019161415611e7f57836001858054905003815481101515611e1757fe5b90600052602060002001548484815481101515611e3057fe5b906000526020600020018160001916905550836001858054905003815481101515611e5757fe5b906000526020600020016000905583805480919060019003611e799190614ed3565b50611e8c565b8280600101935050611dce565b600c6000815480929190600190039190505550846040015173ffffffffffffffffffffffffffffffffffffffff16856000015188600019167f3cf57863a89432c61c4a27073c6ee39e8a764bff5a05aebfbcdcdc80b2e6130a886020015189606001518a608001518b60a0015160405180858152602001806020018060200180602001848103845287818151815260200191508051906020019080838360005b83811015611f47578082015181840152602081019050611f2c565b50505050905090810190601f168015611f745780820380516001836020036101000a031916815260200191505b50848103835286818151815260200191508051906020019080838360005b83811015611fad578082015181840152602081019050611f92565b50505050905090810190601f168015611fda5780820380516001836020036101000a031916815260200191505b50848103825285818151815260200191508051906020019080838360005b83811015612013578082015181840152602081019050611ff8565b50505050905090810190601f1680156120405780820380516001836020036101000a031916815260200191505b5097505050505050505060405180910390a4600195505050505050919050565b60008061206b613d5f565b151561207657600080fd5b600560009054906101000a900460ff1615151561209257600080fd5b6120a884846002613dd49092919063ffffffff16565b15156120b75760009150612107565b6120cd848460026141209092919063ffffffff16565b9050808385600019167f585a4aef50f8267a92b32412b331b20f7f8b96f2245b253b9cc50dcc621d339760405160405180910390a4600191505b5092915050565b600560009054906101000a900460ff1681565b600061212b614df6565b600560009054906101000a900460ff1615151561214757600080fd5b826000600a6000836000191660001916815260200190815260200160002060020160009054906101000a900473ffffffffffffffffffffffffffffffffffffffff16905060008173ffffffffffffffffffffffffffffffffffffffff16141515156121b157600080fd5b6121b9613d5f565b156121c35761230b565b8073ffffffffffffffffffffffffffffffffffffffff163373ffffffffffffffffffffffffffffffffffffffff1614156121fc5761230a565b61222c612207612ced565b8273ffffffffffffffffffffffffffffffffffffffff1661403990919063ffffffff16565b15612304578073ffffffffffffffffffffffffffffffffffffffff1663d202158d612256336126f3565b60026040518363ffffffff167c010000000000000000000000000000000000000000000000000000000002815260040180836000191660001916815260200182815260200192505050602060405180830381600087803b1580156122b957600080fd5b505af11580156122cd573d6000803e3d6000fd5b505050506040513d60208110156122e357600080fd5b810190808051906020019092919050505015156122ff57600080fd5b612309565b600080fd5b5b5b600a6000866000191660001916815260200190815260200160002060c0604051908101604052908160008201548152602001600182015481526020016002820160009054906101000a900473ffffffffffffffffffffffffffffffffffffffff1673ffffffffffffffffffffffffffffffffffffffff1673ffffffffffffffffffffffffffffffffffffffff168152602001600382018054600181600116156101000203166002900480601f0160208091040260200160405190810160405280929190818152602001828054600181600116156101000203166002900480156124355780601f1061240a57610100808354040283529160200191612435565b820191906000526020600020905b81548152906001019060200180831161241857829003601f168201915b50505050508152602001600482018054600181600116156101000203166002900480601f0160208091040260200160405190810160405280929190818152602001828054600181600116156101000203166002900480156124d75780601f106124ac576101008083540402835291602001916124d7565b820191906000526020600020905b8154815290600101906020018083116124ba57829003601f168201915b50505050508152602001600582018054600181600116156101000203166002900480601f0160208091040260200160405190810160405280929190818152602001828054600181600116156101000203166002900480156125795780601f1061254e57610100808354040283529160200191612579565b820191906000526020600020905b81548152906001019060200180831161255c57829003601f168201915b5050505050815250509250600073ffffffffffffffffffffffffffffffffffffffff16836040015173ffffffffffffffffffffffffffffffffffffffff16141515156125c457600080fd5b6125e583600001518460200151856040015186606001518760800151614365565b15156125fe576125f485611885565b5060009350612603565b600193505b505050919050565b60086020528060005260406000206000915090508060000160009054906101000a900473ffffffffffffffffffffffffffffffffffffffff1690806001015490806002018054600181600116156101000203166002900480601f0160208091040260200160405190810160405280929190818152602001828054600181600116156101000203166002900480156126e35780601f106126b8576101008083540402835291602001916126e3565b820191906000526020600020905b8154815290600101906020018083116126c657829003601f168201915b5050505050908060030154905084565b60008173ffffffffffffffffffffffffffffffffffffffff166001029050919050565b60096020528160005260406000208181548110151561273157fe5b906000526020600020016000915091509054906101000a900473ffffffffffffffffffffffffffffffffffffffff1681565b600080600080600560009054906101000a900460ff1615151561278557600080fd5b6000861415151561279557600080fd5b60086000878152602001908152602001600020925060008360000160009054906101000a900473ffffffffffffffffffffffffffffffffffffffff1673ffffffffffffffffffffffffffffffffffffffff16141515156127f457600080fd5b3073ffffffffffffffffffffffffffffffffffffffff168360000160009054906101000a900473ffffffffffffffffffffffffffffffffffffffff1673ffffffffffffffffffffffffffffffffffffffff16141561287b5761286b612858336126f3565b60016002613dd49092919063ffffffff16565b151561287657600080fd5b6128a5565b612899612887336126f3565b600280613dd49092919063ffffffff16565b15156128a457600080fd5b5b857fb3932da477fe5d6c8ff2eafef050c0f3a1af18fc07121001482600f36f3715d886604051808215151515815260200191505060405180910390a2600960008781526020019081526020016000209150841515612a9957600090505b8180549050811015612a90573373ffffffffffffffffffffffffffffffffffffffff16828281548110151561293357fe5b9060005260206000200160009054906101000a900473ffffffffffffffffffffffffffffffffffffffff1673ffffffffffffffffffffffffffffffffffffffff161415612a835781600183805490500381548110151561298f57fe5b9060005260206000200160009054906101000a900473ffffffffffffffffffffffffffffffffffffffff1682828154811015156129c857fe5b9060005260206000200160006101000a81548173ffffffffffffffffffffffffffffffffffffffff021916908373ffffffffffffffffffffffffffffffffffffffff160217905550816001838054905003815481101515612a2557fe5b9060005260206000200160006101000a81549073ffffffffffffffffffffffffffffffffffffffff021916905581805480919060019003612a669190614eff565b506001836003016000828254019250508190555060019350612cdf565b8080600101915050612902565b60009350612cdf565b600090505b8180549050811015612b2a573373ffffffffffffffffffffffffffffffffffffffff168282815481101515612acf57fe5b9060005260206000200160009054906101000a900473ffffffffffffffffffffffffffffffffffffffff1673ffffffffffffffffffffffffffffffffffffffff1614151515612b1d57600080fd5b8080600101915050612a9e565b813390806001815401808255809150509060018203906000526020600020016000909192909190916101000a81548173ffffffffffffffffffffffffffffffffffffffff021916908373ffffffffffffffffffffffffffffffffffffffff1602179055505060018360030160008282540392505081905550600083600301541415612cda57612cd38684608060405190810160405290816000820160009054906101000a900473ffffffffffffffffffffffffffffffffffffffff1673ffffffffffffffffffffffffffffffffffffffff1673ffffffffffffffffffffffffffffffffffffffff16815260200160018201548152602001600282018054600181600116156101000203166002900480601f016020809104026020016040519081016040528092919081815260200182805460018160011615610100020316600290048015612cb95780601f10612c8e57610100808354040283529160200191612cb9565b820191906000526020600020905b815481529060010190602001808311612c9c57829003601f168201915b505050505081526020016003820154815250506001614535565b9350612cdf565b600193505b50505092915050565b600281565b60006353d413c57c01000000000000000000000000000000000000000000000000000000000263747442d37c01000000000000000000000000000000000000000000000000000000000263b61d27f67c010000000000000000000000000000000000000000000000000000000002631d3812407c010000000000000000000000000000000000000000000000000000000002639010f7267c01000000000000000000000000000000000000000000000000000000000263d202158d7c0100000000000000000000000000000000000000000000000000000000026312aaac707c010000000000000000000000000000000000000000000000000000000002181818181818905090565b600181565b612e03613d5f565b1515612e0e57600080fd5b600560009054906101000a900460ff16151515612e2a57600080fd5b6001600560006101000a81548160ff0219169083151502179055507f4b314b34e912fda7f95e7d23e9c8c95f82f0aff1984e4ce592a0b005f905562460405160405180910390a1565b606060026001016000838152602001908152602001600020805480602002602001604051908101604052809291908181526020018280548015612ed957602002820191906000526020600020905b81546000191681526020019060010190808311612ec1575b50505050509050919050565b600481565b600281565b60005481565b600481565b600080600080600560009054906101000a900460ff16151515612f1c57600080fd5b612f298a8a8a8a8a614365565b1515612f3457600080fd5b612f3c613d5f565b92508215156131e4573073ffffffffffffffffffffffffffffffffffffffff1663b61d27f630600080366040518563ffffffff167c0100000000000000000000000000000000000000000000000000000000028152600401808573ffffffffffffffffffffffffffffffffffffffff1673ffffffffffffffffffffffffffffffffffffffff168152602001848152602001806020018281038252848482818152602001925080828437820191505095505050505050602060405180830381600087803b15801561300b57600080fd5b505af115801561301f573d6000803e3d6000fd5b505050506040513d602081101561303557600080fd5b810190808051906020019092919050505093508773ffffffffffffffffffffffffffffffffffffffff168a857fe6b6db97dedfb44cbced367387e40b3f92dbee1b1be87f9367f7b673532b0d698c8b8b8b60405180858152602001806020018060200180602001848103845287818151815260200191508051906020019080838360005b838110156130d45780820151818401526020810190506130b9565b50505050905090810190601f1680156131015780820380516001836020036101000a031916815260200191505b50848103835286818151815260200191508051906020019080838360005b8381101561313a57808201518184015260208101905061311f565b50505050905090810190601f1680156131675780820380516001836020036101000a031916815260200191505b50848103825285818151815260200191508051906020019080838360005b838110156131a0578082015181840152602081019050613185565b50505050905090810190601f1680156131cd5780820380516001836020036101000a031916815260200191505b5097505050505050505060405180910390a4613485565b6131ee888b6113f6565b9150600073ffffffffffffffffffffffffffffffffffffffff16600a6000846000191660001916815260200190815260200160002060020160009054906101000a900473ffffffffffffffffffffffffffffffffffffffff1673ffffffffffffffffffffffffffffffffffffffff16141561327757613272828b8b8b8b8b8b614823565b613484565b600a600083600019166000191681526020019081526020016000209050888160010181905550868160030190805190602001906132b5929190614f2b565b50858160040190805190602001906132ce929190614f2b565b50848160050190805190602001906132e7929190614fab565b508773ffffffffffffffffffffffffffffffffffffffff168a83600019167f3bab293fc00db832d7619a9299914251b8747c036867ec056cbd506f60135b138c8b8b8b60405180858152602001806020018060200180602001848103845287818151815260200191508051906020019080838360005b8381101561337857808201518184015260208101905061335d565b50505050905090810190601f1680156133a55780820380516001836020036101000a031916815260200191505b50848103835286818151815260200191508051906020019080838360005b838110156133de5780820151818401526020810190506133c3565b50505050905090810190601f16801561340b5780820380516001836020036101000a031916815260200191505b50848103825285818151815260200191508051906020019080838360005b83811015613444578082015181840152602081019050613429565b50505050905090810190601f1680156134715780820380516001836020036101000a031916815260200191505b5097505050505050505060405180910390a45b5b5050509695505050505050565b600581565b6000806134a261502b565b600560009054906101000a900460ff161515156134be57600080fd5b3073ffffffffffffffffffffffffffffffffffffffff168673ffffffffffffffffffffffffffffffffffffffff161415613568573073ffffffffffffffffffffffffffffffffffffffff163373ffffffffffffffffffffffffffffffffffffffff161415613530576000549150613563565b61354f61353c336126f3565b60016002613dd49092919063ffffffff16565b151561355a57600080fd5b60016000540391505b613614565b600073ffffffffffffffffffffffffffffffffffffffff168673ffffffffffffffffffffffffffffffffffffffff16141515156135a457600080fd5b3073ffffffffffffffffffffffffffffffffffffffff163373ffffffffffffffffffffffffffffffffffffffff1614156135e2576001549150613613565b6136006135ee336126f3565b600280613dd49092919063ffffffff16565b151561360b57600080fd5b600180540391505b5b61362330878787600754614b30565b9250848673ffffffffffffffffffffffffffffffffffffffff16847f8afcfabcb00e47a53a8fc3e9f23ff47ee1926194bb1350dd007c50b412a6cee8876040518080602001828103825283818151815260200191508051906020019080838360005b838110156136a0578082015181840152602081019050613685565b50505050905090810190601f1680156136cd5780820380516001836020036101000a031916815260200191505b509250505060405180910390a46007600081548092919060010191905055506080604051908101604052808773ffffffffffffffffffffffffffffffffffffffff16815260200186815260200185815260200183815250905060008214156137415761373b83826000614535565b50613848565b806008600085815260200190815260200160002060008201518160000160006101000a81548173ffffffffffffffffffffffffffffffffffffffff021916908373ffffffffffffffffffffffffffffffffffffffff1602179055506020820151816001015560408201518160020190805190602001906137c292919061506a565b5060608201518160030155905050600960008481526020019081526020016000203390806001815401808255809150509060018203906000526020600020016000909192909190916101000a81548173ffffffffffffffffffffffffffffffffffffffff021916908373ffffffffffffffffffffffffffffffffffffffff160217905550505b82925050509392505050565b6000634eee424a7c01000000000000000000000000000000000000000000000000000000000263b1a34e0d7c01000000000000000000000000000000000000000000000000000000000263262b54f57c01000000000000000000000000000000000000000000000000000000000263c9100bcb7c010000000000000000000000000000000000000000000000000000000002181818905090565b600381565b60008060006060806060613905614df6565b600a6000896000191660001916815260200190815260200160002060c0604051908101604052908160008201548152602001600182015481526020016002820160009054906101000a900473ffffffffffffffffffffffffffffffffffffffff1673ffffffffffffffffffffffffffffffffffffffff1673ffffffffffffffffffffffffffffffffffffffff168152602001600382018054600181600116156101000203166002900480601f016020809104026020016040519081016040528092919081815260200182805460018160011615610100020316600290048015613a2f5780601f10613a0457610100808354040283529160200191613a2f565b820191906000526020600020905b815481529060010190602001808311613a1257829003601f168201915b50505050508152602001600482018054600181600116156101000203166002900480601f016020809104026020016040519081016040528092919081815260200182805460018160011615610100020316600290048015613ad15780601f10613aa657610100808354040283529160200191613ad1565b820191906000526020600020905b815481529060010190602001808311613ab457829003601f168201915b50505050508152602001600582018054600181600116156101000203166002900480601f016020809104026020016040519081016040528092919081815260200182805460018160011615610100020316600290048015613b735780601f10613b4857610100808354040283529160200191613b73565b820191906000526020600020905b815481529060010190602001808311613b5657829003601f168201915b5050505050815250509050600073ffffffffffffffffffffffffffffffffffffffff16816040015173ffffffffffffffffffffffffffffffffffffffff1614151515613bbe57600080fd5b80600001519650806020015195508060400151945080606001519350806080015192508060a0015191505091939550919395565b60006002800154905090565b6000600560009054906101000a900460ff16151515613c1c57600080fd5b613c24613d5f565b1515613c2f57600080fd5b600082111515613c3e57600080fd5b613c486001612e73565b519050808211151515613c5a57600080fd5b816000819055505050565b6000613c7d83836002613dd49092919063ffffffff16565b905092915050565b6000600560009054906101000a900460ff16151515613ca357600080fd5b613cab613d5f565b1515613cb657600080fd5b600082111515613cc557600080fd5b613ccf6002612e73565b519050808211151515613ce157600080fd5b816001819055505050565b600281565b613cf9613d5f565b1515613d0457600080fd5b600073ffffffffffffffffffffffffffffffffffffffff168173ffffffffffffffffffffffffffffffffffffffff1614151515613d4057600080fd5b8073ffffffffffffffffffffffffffffffffffffffff16ff5b600c5481565b60003073ffffffffffffffffffffffffffffffffffffffff163373ffffffffffffffffffffffffffffffffffffffff161415613d9e5760019050613dd1565b6001600054141515613daf57600080fd5b613dce613dbb336126f3565b60016002613dd49092919063ffffffff16565b90505b90565b6000613dde614dd1565b600085600001600086600019166000191681526020019081526020016000206060604051908101604052908160008201805480602002602001604051908101604052809291908181526020018280548015613e5857602002820191906000526020600020905b815481526020019060010190808311613e44575b50505050508152602001600182015481526020016002820154600019166000191681525050915060006001028260400151600019161415613e9c5760009250613ee8565b600090505b816000015151811015613ee75783826000015182815181101515613ec157fe5b906020019060200201511415613eda5760019250613ee8565b8080600101915050613ea1565b5b50509392505050565b613f098383836002614ca6909392919063ffffffff16565b808284600019167f480000bb1edad8ca1470381cc334b1917fbd51c6531f3a623ea8e0ec7e38a6e960405160405180910390a4505050565b60008060008060418551141515613f5b5760009350614030565b6020850151925060408501519150606085015160001a9050601b8160ff161015613f8657601b810190505b601b8160ff1614158015613f9e5750601c8160ff1614155b15613fac5760009350614030565b600186828585604051600081526020016040526040518085600019166000191681526020018460ff1660ff1681526020018360001916600019168152602001826000191660001916815260200194505050505060206040516020810390808403906000865af1158015614023573d6000803e3d6000fd5b5050506020604051035193505b50505092915050565b600080600061406b856301ffc9a77c010000000000000000000000000000000000000000000000000000000002614d80565b809250819350505060008214806140825750600081145b156140905760009250614118565b6140bd8563ffffffff7c010000000000000000000000000000000000000000000000000000000002614d80565b809250819350505060008214806140d5575060008114155b156140e35760009250614118565b6140ed8585614d80565b80925081935050506001821480156141055750600181145b156141135760019250614118565b600092505b505092915050565b600080600080866000016000876000191660001916815260200190815260200160002060010154935086600001600087600019166000191681526020019081526020016000206000019250600091505b82805490508210156142375784838381548110151561418b57fe5b9060005260206000200154141561422a578260018480549050038154811015156141b157fe5b906000526020600020015483838154811015156141ca57fe5b90600052602060002001819055508260018480549050038154811015156141ed57fe5b90600052602060002001600090558280548091906001900361420f91906150ea565b50866002016000815480929190600190039190505550614237565b8180600101925050614170565b600083805490501415614285578660000160008760001916600019168152602001908152602001600020600080820160006142729190615116565b6001820160009055600282016000905550505b8660010160008681526020019081526020016000209050600091505b808054905082101561435b57856000191681838154811015156142c057fe5b906000526020600020015460001916141561434e578060018280549050038154811015156142ea57fe5b9060005260206000200154818381548110151561430357fe5b90600052602060002001816000191690555080600182805490500381548110151561432a57fe5b90600052602060002001600090558080548091906001900361434c9190614ed3565b505b81806001019250506142a1565b5050509392505050565b60008060018614156145265761438561437f3089866114c5565b856116d5565b90508073ffffffffffffffffffffffffffffffffffffffff168573ffffffffffffffffffffffffffffffffffffffff1614156143c4576001915061452b565b3073ffffffffffffffffffffffffffffffffffffffff168573ffffffffffffffffffffffffffffffffffffffff16141561441e57614417614404826126f3565b60036002613dd49092919063ffffffff16565b915061452b565b61444e614429612ced565b8673ffffffffffffffffffffffffffffffffffffffff1661403990919063ffffffff16565b1561451d578473ffffffffffffffffffffffffffffffffffffffff1663d202158d614478836126f3565b60036040518363ffffffff167c010000000000000000000000000000000000000000000000000000000002815260040180836000191660001916815260200182815260200192505050602060405180830381600087803b1580156144db57600080fd5b505af11580156144ef573d6000803e3d6000fd5b505050506040513d602081101561450557600080fd5b8101908080519060200190929190505050915061452b565b6000915061452b565b600091505b5095945050505050565b6000806000846000015173ffffffffffffffffffffffffffffffffffffffff161415151561456257600080fd5b836000015173ffffffffffffffffffffffffffffffffffffffff168460200151856040015160405180828051906020019080838360005b838110156145b4578082015181840152602081019050614599565b50505050905090810190601f1680156145e15780820380516001836020036101000a031916815260200191505b5091505060006040518083038185875af19250505090508015156146c9578360200151846000015173ffffffffffffffffffffffffffffffffffffffff16867fe10c49d9f7c71da23262367013434763cfdb2332267641728d25cd712c5c6a6887604001516040518080602001828103825283818151815260200191508051906020019080838360005b8381101561468657808201518184015260208101905061466b565b50505050905090810190601f1680156146b35780820380516001836020036101000a031916815260200191505b509250505060405180910390a46000915061481b565b8360200151846000015173ffffffffffffffffffffffffffffffffffffffff16867f1f920dbda597d7bf95035464170fa58d0a4b57f13a1c315ace6793b9f63688b887604001516040518080602001828103825283818151815260200191508051906020019080838360005b83811015614750578082015181840152602081019050614735565b50505050905090810190601f16801561477d5780820380516001836020036101000a031916815260200191505b509250505060405180910390a482151561479a576001915061481b565b60086000868152602001908152602001600020600080820160006101000a81549073ffffffffffffffffffffffffffffffffffffffff021916905560018201600090556002820160006147ed9190614e43565b600382016000905550506009600086815260200190815260200160002060006148169190615137565b600191505b509392505050565b60c0604051908101604052808781526020018681526020018573ffffffffffffffffffffffffffffffffffffffff16815260200184815260200183815260200182815250600a60008960001916600019168152602001908152602001600020600082015181600001556020820151816001015560408201518160020160006101000a81548173ffffffffffffffffffffffffffffffffffffffff021916908373ffffffffffffffffffffffffffffffffffffffff16021790555060608201518160030190805190602001906148f992919061506a565b50608082015181600401908051906020019061491692919061506a565b5060a0820151816005019080519060200190614933929190615158565b50905050600b6000878152602001908152602001600020879080600181540180825580915050906001820390600052602060002001600090919290919091509060001916905550600c600081548092919060010191905055508373ffffffffffffffffffffffffffffffffffffffff168688600019167f46149b18aa084502c3f12bc75e19eda8bda8d102b82cce8474677a6d0d5f43c58887878760405180858152602001806020018060200180602001848103845287818151815260200191508051906020019080838360005b83811015614a1c578082015181840152602081019050614a01565b50505050905090810190601f168015614a495780820380516001836020036101000a031916815260200191505b50848103835286818151815260200191508051906020019080838360005b83811015614a82578082015181840152602081019050614a67565b50505050905090810190601f168015614aaf5780820380516001836020036101000a031916815260200191505b50848103825285818151815260200191508051906020019080838360005b83811015614ae8578082015181840152602081019050614acd565b50505050905090810190601f168015614b155780820380516001836020036101000a031916815260200191505b5097505050505050505060405180910390a450505050505050565b60008585858585604051602001808673ffffffffffffffffffffffffffffffffffffffff1673ffffffffffffffffffffffffffffffffffffffff166c010000000000000000000000000281526014018573ffffffffffffffffffffffffffffffffffffffff1673ffffffffffffffffffffffffffffffffffffffff166c0100000000000000000000000002815260140184815260200183805190602001908083835b602083101515614bf75780518252602082019150602081019050602083039250614bd2565b6001836020036101000a038019825116818451168082178552505050505050905001828152602001955050505050506040516020818303038152906040526040518082805190602001908083835b602083101515614c6a5780518252602082019150602081019050602083039250614c45565b6001836020036101000a038019825116818451168082178552505050505050905001915050604051809103902060019004905095945050505050565b6000846000016000856000191660001916815260200190815260200160002090508060000183908060018154018082558091505090600182039060005260206000200160009091929091909150555060006001028160020154600019161415614d2057838160020181600019169055508181600101819055505b84600101600084815260200190815260200160002084908060018154018082558091505090600182039060005260206000200160009091929091909150906000191690555084600201600081548092919060010191905055505050505050565b60008060006301ffc9a77c010000000000000000000000000000000000000000000000000000000002905060405181815284600482015260208160208389617530fa93508051925050509250929050565b6060604051908101604052806060815260200160008152602001600080191681525090565b60c0604051908101604052806000815260200160008152602001600073ffffffffffffffffffffffffffffffffffffffff1681526020016060815260200160608152602001606081525090565b50805460018160011615610100020316600290046000825580601f10614e695750614e88565b601f016020900490600052602060002090810190614e8791906151d8565b5b50565b50805460018160011615610100020316600290046000825580601f10614eb15750614ed0565b601f016020900490600052602060002090810190614ecf91906151d8565b5b50565b815481835581811115614efa57818360005260206000209182019101614ef991906151fd565b5b505050565b815481835581811115614f2657818360005260206000209182019101614f2591906151d8565b5b505050565b828054600181600116156101000203166002900490600052602060002090601f016020900481019282601f10614f6c57805160ff1916838001178555614f9a565b82800160010185558215614f9a579182015b82811115614f99578251825591602001919060010190614f7e565b5b509050614fa791906151d8565b5090565b828054600181600116156101000203166002900490600052602060002090601f016020900481019282601f10614fec57805160ff191683800117855561501a565b8280016001018555821561501a579182015b82811115615019578251825591602001919060010190614ffe565b5b50905061502791906151d8565b5090565b608060405190810160405280600073ffffffffffffffffffffffffffffffffffffffff1681526020016000815260200160608152602001600081525090565b828054600181600116156101000203166002900490600052602060002090601f016020900481019282601f106150ab57805160ff19168380011785556150d9565b828001600101855582156150d9579182015b828111156150d85782518255916020019190600101906150bd565b5b5090506150e691906151d8565b5090565b8154818355818111156151115781836000526020600020918201910161511091906151d8565b5b505050565b508054600082559060005260206000209081019061513491906151d8565b50565b508054600082559060005260206000209081019061515591906151d8565b50565b828054600181600116156101000203166002900490600052602060002090601f016020900481019282601f1061519957805160ff19168380011785556151c7565b828001600101855582156151c7579182015b828111156151c65782518255916020019190600101906151ab565b5b5090506151d491906151d8565b5090565b6151fa91905b808211156151f65760008160009055506001016151de565b5090565b90565b61521f91905b8082111561521b576000816000905550600101615203565b5090565b90565b6060806000808460ff166040519080825280601f01601f19166020018201604052801561525e5781602001602082028038833980820191505090505b509250600091508590505b8460ff16860181101561532057868181518110151561528457fe5b9060200101517f010000000000000000000000000000000000000000000000000000000000000090047f01000000000000000000000000000000000000000000000000000000000000000283838060010194508151811015156152e357fe5b9060200101907effffffffffffffffffffffffffffffffffffffffffffffffffffffffffffff1916908160001a9053508080600101915050615269565b8293505050509392505050565b606061533a848484615222565b905093925050505600a165627a7a72305820b0ac01bb7242c51905e0c2605a9f933b778a536b3c65dc1e97ffb8f83599dcab0029",
  "source": "pragma solidity ^0.4.24;\n\nimport \"./Destructible.sol\";\nimport \"./ERC735.sol\";\nimport \"./KeyGetters.sol\";\nimport \"./KeyManager.sol\";\nimport \"./MultiSig.sol\";\nimport \"./ClaimManager.sol\";\nimport \"./Slice.sol\";\n\n/// @title Identity\n/// @author Mircea Pasoi\n/// @notice Identity contract implementing both ERC 725 and ERC 735\n\ncontract Identity is KeyManager, MultiSig, ClaimManager, Destructible, KeyGetters {\n    using Slice for bytes;\n    using Slice for string;\n\n    /// @dev Constructor for Identity contract. If no initial keys are passed then\n    ///  `msg.sender` is used as an initial MANAGEMENT_KEY, ACTION_KEY and CLAIM_SIGNER_KEY\n    /// @param _keys Keys to start contract with, in ascending order; in case of equality, purposes must be ascending\n    /// @param _purposes Key purposes (in the same order as _keys)\n    /// @param _issuers Claim issuers to start contract with, in ascending order; in case of equality, topics must be ascending\n    /// @param _managementThreshold Multi-sig threshold for MANAGEMENT_KEY\n    /// @param _actionThreshold Multi-sig threshold for ACTION_KEY\n    /// @param _topics Claim topics (in the same order as _issuers)\n    /// @param _signatures All the initial claim signatures concatenated in one bytes array\n    /// @param _datas All the initial claim data concatenated in one bytes array\n    /// @param _uris All the initial claim URIs concatenated in one string\n    /// @param _sizes Triples of signature, claim data, URI sizes (each must be  256)\n    constructor\n    (\n        bytes32[] _keys,\n        uint256[] _purposes,\n        uint256 _managementThreshold,\n        uint256 _actionThreshold,\n        address[] _issuers,\n        uint256[] _topics,\n        // TODO: Pass bytes[] signatures, bytes[] data and string[] uris once ABIEncoderV2 is out\n        bytes _signatures,\n        bytes _datas,\n        string _uris,\n        uint8[] _sizes\n    )\n    public {\n        _validateKeys(_keys, _purposes);\n        _validateClaims(_issuers, _topics, _sizes);\n\n        _addKeys(_keys, _purposes, _managementThreshold, _actionThreshold);\n        _addClaims(_issuers, _topics, _signatures, _datas, _uris, _sizes);\n\n        // Supports both ERC 725 & 735\n        supportedInterfaces[ERC725ID() ^ ERC735ID()] = true;\n    }\n\n    // Fallback function accepts Ether transactions\n    // solhint-disable-next-line no-empty-blocks\n    function () external payable {\n    }\n\n    /// @dev Validate keys are sorted and unique\n    /// @param _keys Keys to start contract with, in ascending order; in case of equality, purposes must be ascending\n    /// @param _purposes Key purposes (in the same order as _keys)\n    function _validateKeys\n    (\n        bytes32[] _keys,\n        uint256[] _purposes\n    )\n    private\n    pure\n    {\n        // Validate keys are sorted and unique\n        require(_keys.length == _purposes.length);\n        for (uint i = 1; i < _keys.length; i++) {\n            // Expect input to be in sorted order, first by keys, then by purposes\n            // Sorted order guarantees (key, purpose) pairs are unique and we can use\n            // _addKey insteaad of addKey (which also checks for existance)\n            bytes32 prevKey = _keys[i - 1];\n            require(_keys[i] > prevKey || (_keys[i] == prevKey && _purposes[i] > _purposes[i - 1]));\n        }\n    }\n\n    /// @dev Add keys to contract and set multi-sig thresholds\n    /// @param _keys Keys to start contract with, in ascending order; in case of equality, purposes must be ascending\n    /// @param _purposes Key purposes (in the same order as _keys)\n    /// @param _managementThreshold Multi-sig threshold for MANAGEMENT_KEY\n    /// @param _actionThreshold Multi-sig threshold for ACTION_KEY\n    function _addKeys\n    (\n        bytes32[] _keys,\n        uint256[] _purposes,\n        uint256 _managementThreshold,\n        uint256 _actionThreshold\n    )\n    private\n    {\n        uint256 actionCount;\n        uint256 managementCount;\n        if (_keys.length == 0) {\n            bytes32 senderKey = addrToKey(msg.sender);\n            // Add key that deployed the contract for MANAGEMENT, ACTION, CLAIM\n            _addKey(senderKey, MANAGEMENT_KEY, ECDSA_TYPE);\n            _addKey(senderKey, ACTION_KEY, ECDSA_TYPE);\n            _addKey(senderKey, CLAIM_SIGNER_KEY, ECDSA_TYPE);\n            actionCount = 1;\n            managementCount = 1;\n        } else {\n            // Add constructor keys\n            for (uint i = 0; i < _keys.length; i++) {\n                _addKey(_keys[i], _purposes[i], ECDSA_TYPE);\n                if (_purposes[i] == MANAGEMENT_KEY) {\n                    managementCount++;\n                } else\n                if (_purposes[i] == ACTION_KEY) {\n                    actionCount++;\n                }\n            }\n        }\n\n        require(_managementThreshold > 0);\n        require(_managementThreshold <= managementCount);\n        require(_actionThreshold > 0);\n        require(_actionThreshold <= actionCount);\n        managementThreshold = _managementThreshold;\n        actionThreshold = _actionThreshold;\n    }\n\n    /// @dev Validate claims are sorted and unique\n    /// @param _issuers Claim issuers to start contract with, in ascending order; in case of equality, topics must be ascending\n    /// @param _topics Claim topics (in the same order as _issuers)\n    /// @param _sizes Triples of signature, claim data, URI sizes (each must be  256)\n    function _validateClaims\n    (\n        address[] _issuers,\n        uint256[] _topics,\n        uint8[] _sizes\n    )\n    private\n    pure\n    {\n        // Validate claims are sorted and unique\n        require(_issuers.length == _topics.length);\n        require(3 * _topics.length == _sizes.length);\n        for (uint i = 1; i < _issuers.length; i++) {\n            // Expect input to be in sorted order, first by issuer, then by topic\n            // Sorted order guarantees (issuer, topic) pairs are unique\n            address prevIssuer = _issuers[i - 1];\n            require(_issuers[i] != prevIssuer || (_issuers[i] == prevIssuer && _topics[i] > _topics[i - 1]));\n        }\n    }\n\n    /// @dev Add claims to contract without an URI\n    /// @param _issuers Claim issuers to start contract with, in ascending order; in case of equality, topics must be ascending\n    /// @param _topics Claim topics (in the same order as _issuers)\n    /// @param _signatures All the initial claim signatures concatenated in one bytes array\n    /// @param _datas All the initial claim data concatenated in one bytes array\n    /// @param _uris All the initial claim URIs concatenated in one string\n    /// @param _sizes Triples of signature, claim data, URI sizes (each must be  256)\n    function _addClaims\n    (\n        address[] _issuers,\n        uint256[] _topics,\n        bytes _signatures,\n        bytes _datas,\n        string _uris,\n        uint8[] _sizes\n    )\n    private\n    {\n        // Add constructor claims\n        uint[3] memory offset;\n        bytes memory signature;\n        bytes memory data;\n        for (uint i = 0; i < _issuers.length; i++) {\n            // Check signature\n            signature = _signatures.slice(offset[0], _sizes[3 * i]);\n            data = _datas.slice(offset[1], _sizes[3 * i + 1]);\n            require(_validSignature(_topics[i], ECDSA_SCHEME, _issuers[i], signature, data));\n            // Add claim\n            _addClaim(\n                getClaimId(_issuers[i], _topics[i]),\n                _topics[i],\n                ECDSA_SCHEME,\n                _issuers[i],\n                signature,\n                data,\n                _uris.slice(offset[2], _sizes[3 * i + 2])\n            );\n            offset[0] += _sizes[3 * i];\n            offset[1] += _sizes[3 * i + 1];\n            offset[2] += _sizes[3 * i + 2];\n        }\n    }\n}",
  "sourcePath": "/home/sithagaisingam/Works/erc725-735-master/contracts/Identity.sol",
  "compiler": {
    "name": "solc",
    "version": "0.4.24+commit.e67f0147.Emscripten.clang"
  },
  "schemaVersion": "2.0.1",
  "updatedAt": "2018-09-27T06:59:13.282Z"
}