{
  "contractName": "KeyBase",
  "abi": [
    {
      "constant": true,
      "inputs": [],
      "name": "MANAGEMENT_KEY",
      "outputs": [
        {
          "name": "",
          "type": "uint256"
        }
      ],
      "payable": false,
      "stateMutability": "view",
      "type": "function"
    },
    {
      "constant": true,
      "inputs": [],
      "name": "actionThreshold",
      "outputs": [
        {
          "name": "",
          "type": "uint256"
        }
      ],
      "payable": false,
      "stateMutability": "view",
      "type": "function"
    },
    {
      "constant": true,
      "inputs": [],
      "name": "managementThreshold",
      "outputs": [
        {
          "name": "",
          "type": "uint256"
        }
      ],
      "payable": false,
      "stateMutability": "view",
      "type": "function"
    },
    {
      "constant": true,
      "inputs": [],
      "name": "numKeys",
      "outputs": [
        {
          "name": "",
          "type": "uint256"
        }
      ],
      "payable": false,
      "stateMutability": "view",
      "type": "function"
    },
    {
      "constant": true,
      "inputs": [
        {
          "name": "addr",
          "type": "address"
        }
      ],
      "name": "addrToKey",
      "outputs": [
        {
          "name": "",
          "type": "bytes32"
        }
      ],
      "payable": false,
      "stateMutability": "pure",
      "type": "function"
    }
  ],
  "bytecode": "0x608060405260016000556001805534801561001957600080fd5b506101e9806100296000396000f30060806040526004361061006d576000357c0100000000000000000000000000000000000000000000000000000000900463ffffffff168063058b316c1461007257806338f4edd41461009d57806363f14c3c146100c8578063aa0a514214610127578063c9d24ecc14610152575b600080fd5b34801561007e57600080fd5b5061008761017d565b6040518082815260200191505060405180910390f35b3480156100a957600080fd5b506100b2610182565b6040518082815260200191505060405180910390f35b3480156100d457600080fd5b50610109600480360381019080803573ffffffffffffffffffffffffffffffffffffffff169060200190929190505050610188565b60405180826000191660001916815260200191505060405180910390f35b34801561013357600080fd5b5061013c6101ab565b6040518082815260200191505060405180910390f35b34801561015e57600080fd5b506101676101b1565b6040518082815260200191505060405180910390f35b600181565b60015481565b60008173ffffffffffffffffffffffffffffffffffffffff166001029050919050565b60005481565b600060028001549050905600a165627a7a723058200c8bf73b26a62615937c4b1be29cea14a7dc163a5aad58b8cbebada65d34dce70029",
  "source": "pragma solidity ^0.4.24;\n\nimport \"./KeyStore.sol\";\n\n/// @title KeyBase\n/// @author Mircea Pasoi\n/// @notice Abstract contract for ERC725 implementation\n/// @dev Key data is stored using KeyStore library\n\ncontract KeyBase {\n    uint256 public constant MANAGEMENT_KEY = 1;\n\n    // For multi-sig\n    uint256 public managementThreshold = 1;\n    uint256 public actionThreshold = 1;\n\n    // Key storage\n    using KeyStore for KeyStore.Keys;\n    KeyStore.Keys internal allKeys;\n\n    /// @dev Number of keys managed by the contract\n    /// @return Unsigned integer number of keys\n    function numKeys()\n        external\n        view\n        returns (uint)\n    {\n        return allKeys.numKeys;\n    }\n\n    /// @dev Convert an Ethereum address (20 bytes) to an ERC725 key (32 bytes)\n    /// @dev It's just a simple typecast, but it's especially useful in tests\n    function addrToKey(address addr)\n        public\n        pure\n        returns (bytes32)\n    {\n        return bytes32(addr);\n    }\n\n    /// @dev Checks if sender is either the identity contract or a MANAGEMENT_KEY\n    /// @dev If the multi-sig threshold for MANAGEMENT_KEY if >1, it will throw an error\n    /// @return `true` if sender is either identity contract or a MANAGEMENT_KEY\n    function _managementOrSelf()\n        internal\n        view\n        returns (bool found)\n    {\n        if (msg.sender == address(this)) {\n            // Identity contract itself\n            return true;\n        }\n        // Only works with 1 key threshold, otherwise need multi-sig\n        require(managementThreshold == 1);\n        return allKeys.find(addrToKey(msg.sender), MANAGEMENT_KEY);\n    }\n\n    /// @dev Modifier that only allows keys of purpose 1, or the identity itself\n    modifier onlyManagementOrSelf {\n        require(_managementOrSelf());\n        _;\n    }\n}\n",
  "sourcePath": "/home/sithagaisingam/Works/erc725-735-master/contracts/KeyBase.sol",
  "compiler": {
    "name": "solc",
    "version": "0.4.24+commit.e67f0147.Emscripten.clang"
  },
  "schemaVersion": "2.0.1",
  "updatedAt": "2018-09-27T06:58:04.778Z"
}