{
  "contractName": "KeyGetters",
  "abi": [
    {
      "constant": true,
      "inputs": [],
      "name": "MANAGEMENT_KEY",
      "outputs": [
        {
          "name": "",
          "type": "uint256"
        }
      ],
      "payable": false,
      "stateMutability": "view",
      "type": "function"
    },
    {
      "constant": true,
      "inputs": [],
      "name": "actionThreshold",
      "outputs": [
        {
          "name": "",
          "type": "uint256"
        }
      ],
      "payable": false,
      "stateMutability": "view",
      "type": "function"
    },
    {
      "constant": true,
      "inputs": [
        {
          "name": "addr",
          "type": "address"
        }
      ],
      "name": "addrToKey",
      "outputs": [
        {
          "name": "",
          "type": "bytes32"
        }
      ],
      "payable": false,
      "stateMutability": "pure",
      "type": "function"
    },
    {
      "constant": true,
      "inputs": [],
      "name": "managementThreshold",
      "outputs": [
        {
          "name": "",
          "type": "uint256"
        }
      ],
      "payable": false,
      "stateMutability": "view",
      "type": "function"
    },
    {
      "constant": true,
      "inputs": [],
      "name": "numKeys",
      "outputs": [
        {
          "name": "",
          "type": "uint256"
        }
      ],
      "payable": false,
      "stateMutability": "view",
      "type": "function"
    },
    {
      "constant": true,
      "inputs": [
        {
          "name": "_key",
          "type": "bytes32"
        }
      ],
      "name": "getKey",
      "outputs": [
        {
          "name": "purposes",
          "type": "uint256[]"
        },
        {
          "name": "keyType",
          "type": "uint256"
        },
        {
          "name": "key",
          "type": "bytes32"
        }
      ],
      "payable": false,
      "stateMutability": "view",
      "type": "function"
    },
    {
      "constant": true,
      "inputs": [
        {
          "name": "_key",
          "type": "bytes32"
        },
        {
          "name": "purpose",
          "type": "uint256"
        }
      ],
      "name": "keyHasPurpose",
      "outputs": [
        {
          "name": "exists",
          "type": "bool"
        }
      ],
      "payable": false,
      "stateMutability": "view",
      "type": "function"
    },
    {
      "constant": true,
      "inputs": [
        {
          "name": "_purpose",
          "type": "uint256"
        }
      ],
      "name": "getKeysByPurpose",
      "outputs": [
        {
          "name": "keys",
          "type": "bytes32[]"
        }
      ],
      "payable": false,
      "stateMutability": "view",
      "type": "function"
    }
  ],
  "bytecode": "0x608060405260016000556001805534801561001957600080fd5b50610619806100296000396000f30060806040526004361061008e576000357c0100000000000000000000000000000000000000000000000000000000900463ffffffff168063058b316c1461009357806312aaac70146100be57806338f4edd41461015a57806363f14c3c146101855780639010f726146101e4578063aa0a514214610266578063c9d24ecc14610291578063d202158d146102bc575b600080fd5b34801561009f57600080fd5b506100a861030f565b6040518082815260200191505060405180910390f35b3480156100ca57600080fd5b506100ed6004803603810190808035600019169060200190929190505050610314565b60405180806020018481526020018360001916600019168152602001828103825285818151815260200191508051906020019060200280838360005b83811015610144578082015181840152602081019050610129565b5050505090500194505050505060405180910390f35b34801561016657600080fd5b5061016f6103de565b6040518082815260200191505060405180910390f35b34801561019157600080fd5b506101c6600480360381019080803573ffffffffffffffffffffffffffffffffffffffff1690602001909291905050506103e4565b60405180826000191660001916815260200191505060405180910390f35b3480156101f057600080fd5b5061020f60048036038101908080359060200190929190505050610407565b6040518080602001828103825283818151815260200191508051906020019060200280838360005b83811015610252578082015181840152602081019050610237565b505050509050019250505060405180910390f35b34801561027257600080fd5b5061027b610479565b6040518082815260200191505060405180910390f35b34801561029d57600080fd5b506102a661047f565b6040518082815260200191505060405180910390f35b3480156102c857600080fd5b506102f560048036038101908080356000191690602001909291908035906020019092919050505061048b565b604051808215151515815260200191505060405180910390f35b600181565b60606000806103216105c8565b600260000160008660001916600019168152602001908152602001600020606060405190810160405290816000820180548060200260200160405190810160405280929190818152602001828054801561039a57602002820191906000526020600020905b815481526020019060010190808311610386575b505050505081526020016001820154815260200160028201546000191660001916815250509050806000015193508060200151925080604001519150509193909250565b60015481565b60008173ffffffffffffffffffffffffffffffffffffffff166001029050919050565b60606002600101600083815260200190815260200160002080548060200260200160405190810160405280929190818152602001828054801561046d57602002820191906000526020600020905b81546000191681526020019060010190808311610455575b50505050509050919050565b60005481565b60006002800154905090565b60006104a3838360026104ab9092919063ffffffff16565b905092915050565b60006104b56105c8565b60008560000160008660001916600019168152602001908152602001600020606060405190810160405290816000820180548060200260200160405190810160405280929190818152602001828054801561052f57602002820191906000526020600020905b81548152602001906001019080831161051b575b5050505050815260200160018201548152602001600282015460001916600019168152505091506000600102826040015160001916141561057357600092506105bf565b600090505b8160000151518110156105be578382600001518281518110151561059857fe5b9060200190602002015114156105b157600192506105bf565b8080600101915050610578565b5b50509392505050565b60606040519081016040528060608152602001600081526020016000801916815250905600a165627a7a723058203c0f5f3c4cf560af0336b0ef73297a108f46618665f9988704e15b7d30f733090029",
  "source": "pragma solidity ^0.4.24;\n\nimport \"./KeyBase.sol\";\n\n/// @title KeyGetters\n/// @author Mircea Pasoi\n/// @notice Implement getter functions from ERC725 spec\n/// @dev Key data is stored using KeyStore library\n\ncontract KeyGetters is KeyBase {\n    /// @dev Find the key data, if held by the identity\n    /// @param _key Key bytes to find\n    /// @return `(purposes, keyType, key)` tuple if the key exists\n    function getKey(\n        bytes32 _key\n    )\n        public\n        view\n        returns(uint256[] purposes, uint256 keyType, bytes32 key)\n    {\n        KeyStore.Key memory k = allKeys.keyData[_key];\n        purposes = k.purposes;\n        keyType = k.keyType;\n        key = k.key;\n    }\n\n    /// @dev Find if a key has is present and has the given purpose\n    /// @param _key Key bytes to find\n    /// @param purpose Purpose to find\n    /// @return Boolean indicating whether the key exists or not\n    function keyHasPurpose(\n        bytes32 _key,\n        uint256 purpose\n    )\n        public\n        view\n        returns(bool exists)\n    {\n        return allKeys.find(_key, purpose);\n    }\n\n    /// @dev Find all the keys held by this identity for a given purpose\n    /// @param _purpose Purpose to find\n    /// @return Array with key bytes for that purpose (empty if none)\n    function getKeysByPurpose(uint256 _purpose)\n        public\n        view\n        returns(bytes32[] keys)\n    {\n        return allKeys.keysByPurpose[_purpose];\n    }\n}",
  "sourcePath": "/home/sithagaisingam/Works/erc725-735-master/contracts/KeyGetters.sol",
  "compiler": {
    "name": "solc",
    "version": "0.4.24+commit.e67f0147.Emscripten.clang"
  },
  "schemaVersion": "2.0.1",
  "updatedAt": "2018-09-27T06:58:04.778Z"
}